{"abi":[{"type":"constructor","inputs":[{"name":"entranceFee","type":"uint256","internalType":"uint256"}],"stateMutability":"nonpayable"},{"type":"function","name":"enterLottery","inputs":[],"outputs":[],"stateMutability":"nonpayable"},{"type":"function","name":"getEntranceFee","inputs":[],"outputs":[{"name":"","type":"uint256","internalType":"uint256"}],"stateMutability":"view"},{"type":"function","name":"pickWinner","inputs":[],"outputs":[],"stateMutability":"nonpayable"}],"bytecode":{"object":"0x60a060405234801561001057600080fd5b506040516101bd3803806101bd8339818101604052810190610032919061007b565b8060808181525050506100a8565b600080fd5b6000819050919050565b61005881610045565b811461006357600080fd5b50565b6000815190506100758161004f565b92915050565b60006020828403121561009157610090610040565b5b600061009f84828501610066565b91505092915050565b60805160fd6100c06000396000606f015260fd6000f3fe6080604052348015600f57600080fd5b5060043610603c5760003560e01c806309bc33a71460415780635d495aea14605b578063c1af5785146063575b600080fd5b6047606b565b6040516052919060ae565b60405180910390f35b60616093565b005b60696095565b005b60007f0000000000000000000000000000000000000000000000000000000000000000905090565b565b565b6000819050919050565b60a8816097565b82525050565b600060208201905060c1600083018460a1565b9291505056fea26469706673582212201700315a59ad5a22acb27ef5ca3d414f327ace0ce03be793a1ed3f8c264d838a64736f6c63430008130033","linkReferences":{}},"methodIdentifiers":{"enterLottery()":"c1af5785","getEntranceFee()":"09bc33a7","pickWinner()":"5d495aea"},"id":0}