{"abi":[{"type":"constructor","inputs":[],"stateMutability":"nonpayable"},{"type":"function","name":"DOMAIN_SEPARATOR","inputs":[],"outputs":[{"name":"","type":"bytes32","internalType":"bytes32"}],"stateMutability":"view"},{"type":"function","name":"allowance","inputs":[{"name":"","type":"address","internalType":"address"},{"name":"","type":"address","internalType":"address"}],"outputs":[{"name":"","type":"uint256","internalType":"uint256"}],"stateMutability":"view"},{"type":"function","name":"approve","inputs":[{"name":"spender","type":"address","internalType":"address"},{"name":"amount","type":"uint256","internalType":"uint256"}],"outputs":[{"name":"","type":"bool","internalType":"bool"}],"stateMutability":"nonpayable"},{"type":"function","name":"balanceOf","inputs":[{"name":"","type":"address","internalType":"address"}],"outputs":[{"name":"","type":"uint256","internalType":"uint256"}],"stateMutability":"view"},{"type":"function","name":"decimals","inputs":[],"outputs":[{"name":"","type":"uint8","internalType":"uint8"}],"stateMutability":"view"},{"type":"function","name":"mint","inputs":[{"name":"to","type":"address","internalType":"address"},{"name":"value","type":"uint256","internalType":"uint256"}],"outputs":[],"stateMutability":"nonpayable"},{"type":"function","name":"name","inputs":[],"outputs":[{"name":"","type":"string","internalType":"string"}],"stateMutability":"view"},{"type":"function","name":"nonces","inputs":[{"name":"","type":"address","internalType":"address"}],"outputs":[{"name":"","type":"uint256","internalType":"uint256"}],"stateMutability":"view"},{"type":"function","name":"permit","inputs":[{"name":"owner","type":"address","internalType":"address"},{"name":"spender","type":"address","internalType":"address"},{"name":"value","type":"uint256","internalType":"uint256"},{"name":"deadline","type":"uint256","internalType":"uint256"},{"name":"v","type":"uint8","internalType":"uint8"},{"name":"r","type":"bytes32","internalType":"bytes32"},{"name":"s","type":"bytes32","internalType":"bytes32"}],"outputs":[],"stateMutability":"nonpayable"},{"type":"function","name":"symbol","inputs":[],"outputs":[{"name":"","type":"string","internalType":"string"}],"stateMutability":"view"},{"type":"function","name":"totalSupply","inputs":[],"outputs":[{"name":"","type":"uint256","internalType":"uint256"}],"stateMutability":"view"},{"type":"function","name":"transfer","inputs":[{"name":"to","type":"address","internalType":"address"},{"name":"amount","type":"uint256","internalType":"uint256"}],"outputs":[{"name":"","type":"bool","internalType":"bool"}],"stateMutability":"nonpayable"},{"type":"function","name":"transferAndCall","inputs":[{"name":"_to","type":"address","internalType":"address"},{"name":"_value","type":"uint256","internalType":"uint256"},{"name":"_data","type":"bytes","internalType":"bytes"}],"outputs":[{"name":"success","type":"bool","internalType":"bool"}],"stateMutability":"nonpayable"},{"type":"function","name":"transferFrom","inputs":[{"name":"from","type":"address","internalType":"address"},{"name":"to","type":"address","internalType":"address"},{"name":"amount","type":"uint256","internalType":"uint256"}],"outputs":[{"name":"","type":"bool","internalType":"bool"}],"stateMutability":"nonpayable"},{"type":"event","name":"Approval","inputs":[{"name":"owner","type":"address","indexed":true,"internalType":"address"},{"name":"spender","type":"address","indexed":true,"internalType":"address"},{"name":"amount","type":"uint256","indexed":false,"internalType":"uint256"}],"anonymous":false},{"type":"event","name":"Transfer","inputs":[{"name":"from","type":"address","indexed":true,"internalType":"address"},{"name":"to","type":"address","indexed":true,"internalType":"address"},{"name":"value","type":"uint256","indexed":false,"internalType":"uint256"},{"name":"data","type":"bytes","indexed":false,"internalType":"bytes"}],"anonymous":false},{"type":"event","name":"Transfer","inputs":[{"name":"from","type":"address","indexed":true,"internalType":"address"},{"name":"to","type":"address","indexed":true,"internalType":"address"},{"name":"amount","type":"uint256","indexed":false,"internalType":"uint256"}],"anonymous":false}],"bytecode":{"object":"0x60e06040523480156200001157600080fd5b506040518060400160405280600981526020017f4c696e6b546f6b656e00000000000000000000000000000000000000000000008152506040518060400160405280600481526020017f4c494e4b0000000000000000000000000000000000000000000000000000000081525060128260009081620000919190620004d4565b508160019081620000a39190620004d4565b508060ff1660808160ff16815250504660a08181525050620000ca620000f660201b60201c565b60c08181525050505050620000f03369d3c21bcecceda10000006200018660201b60201c565b620007d8565b60007f8b73c3c69bb8fe3d512ecc4cf759cc79239f7b179b0ffacaa9a75d522b39400f60006040516200012a91906200066a565b60405180910390207fc89efdaa54c0f20c7adf612882df0950f5a951637e0307cdcb4c672f298b8bc646306040516020016200016b959493929190620006f4565b60405160208183030381529060405280519060200120905090565b80600260008282546200019a919062000780565b9250508190555080600360008473ffffffffffffffffffffffffffffffffffffffff1673ffffffffffffffffffffffffffffffffffffffff168152602001908152602001600020600082825401925050819055508173ffffffffffffffffffffffffffffffffffffffff16600073ffffffffffffffffffffffffffffffffffffffff167fddf252ad1be2c89b69c2b068fc378daa952ba7f163c4a11628f55a4df523b3ef836040516200024e9190620007bb565b60405180910390a35050565b600081519050919050565b7f4e487b7100000000000000000000000000000000000000000000000000000000600052604160045260246000fd5b7f4e487b7100000000000000000000000000000000000000000000000000000000600052602260045260246000fd5b60006002820490506001821680620002dc57607f821691505b602082108103620002f257620002f162000294565b5b50919050565b60008190508160005260206000209050919050565b60006020601f8301049050919050565b600082821b905092915050565b6000600883026200035c7fffffffffffffffffffffffffffffffffffffffffffffffffffffffffffffffff826200031d565b6200036886836200031d565b95508019841693508086168417925050509392505050565b6000819050919050565b6000819050919050565b6000620003b5620003af620003a98462000380565b6200038a565b62000380565b9050919050565b6000819050919050565b620003d18362000394565b620003e9620003e082620003bc565b8484546200032a565b825550505050565b600090565b62000400620003f1565b6200040d818484620003c6565b505050565b5b81811015620004355762000429600082620003f6565b60018101905062000413565b5050565b601f82111562000484576200044e81620002f8565b62000459846200030d565b8101602085101562000469578190505b6200048162000478856200030d565b83018262000412565b50505b505050565b600082821c905092915050565b6000620004a96000198460080262000489565b1980831691505092915050565b6000620004c4838362000496565b9150826002028217905092915050565b620004df826200025a565b67ffffffffffffffff811115620004fb57620004fa62000265565b5b620005078254620002c3565b6200051482828562000439565b600060209050601f8311600181146200054c576000841562000537578287015190505b620005438582620004b6565b865550620005b3565b601f1984166200055c86620002f8565b60005b8281101562000586578489015182556001820191506020850194506020810190506200055f565b86831015620005a65784890151620005a2601f89168262000496565b8355505b6001600288020188555050505b505050505050565b600081905092915050565b60008190508160005260206000209050919050565b60008154620005ea81620002c3565b620005f68186620005bb565b945060018216600081146200061457600181146200062a5762000661565b60ff198316865281151582028601935062000661565b6200063585620005c6565b60005b83811015620006595781548189015260018201915060208101905062000638565b838801955050505b50505092915050565b6000620006788284620005db565b915081905092915050565b6000819050919050565b620006988162000683565b82525050565b620006a98162000380565b82525050565b600073ffffffffffffffffffffffffffffffffffffffff82169050919050565b6000620006dc82620006af565b9050919050565b620006ee81620006cf565b82525050565b600060a0820190506200070b60008301886200068d565b6200071a60208301876200068d565b6200072960408301866200068d565b6200073860608301856200069e565b620007476080830184620006e3565b9695505050505050565b7f4e487b7100000000000000000000000000000000000000000000000000000000600052601160045260246000fd5b60006200078d8262000380565b91506200079a8362000380565b9250828201905080821115620007b557620007b462000751565b5b92915050565b6000602082019050620007d260008301846200069e565b92915050565b60805160a05160c0516119da62000808600039600061073901526000610705015260006106df01526119da6000f3fe608060405234801561001057600080fd5b50600436106100ea5760003560e01c806340c10f191161008c57806395d89b411161006657806395d89b4114610273578063a9059cbb14610291578063d505accf146102c1578063dd62ed3e146102dd576100ea565b806340c10f19146101f757806370a08231146102135780637ecebe0014610243576100ea565b806323b872dd116100c857806323b872dd1461015b578063313ce5671461018b5780633644e515146101a95780634000aea0146101c7576100ea565b806306fdde03146100ef578063095ea7b31461010d57806318160ddd1461013d575b600080fd5b6100f761030d565b6040516101049190610f6e565b60405180910390f35b61012760048036038101906101229190611038565b61039b565b6040516101349190611093565b60405180910390f35b61014561048d565b60405161015291906110bd565b60405180910390f35b610175600480360381019061017091906110d8565b610493565b6040516101829190611093565b60405180910390f35b6101936106dd565b6040516101a09190611147565b60405180910390f35b6101b1610701565b6040516101be919061117b565b60405180910390f35b6101e160048036038101906101dc91906112cb565b61075e565b6040516101ee9190611093565b60405180910390f35b610211600480360381019061020c9190611038565b6107f7565b005b61022d6004803603810190610228919061133a565b610805565b60405161023a91906110bd565b60405180910390f35b61025d6004803603810190610258919061133a565b61081d565b60405161026a91906110bd565b60405180910390f35b61027b610835565b6040516102889190610f6e565b60405180910390f35b6102ab60048036038101906102a69190611038565b6108c3565b6040516102b89190611093565b60405180910390f35b6102db60048036038101906102d691906113bf565b6109d7565b005b6102f760048036038101906102f29190611461565b610cd0565b60405161030491906110bd565b60405180910390f35b6000805461031a906114d0565b80601f0160208091040260200160405190810160405280929190818152602001828054610346906114d0565b80156103935780601f1061036857610100808354040283529160200191610393565b820191906000526020600020905b81548152906001019060200180831161037657829003601f168201915b505050505081565b600081600460003373ffffffffffffffffffffffffffffffffffffffff1673ffffffffffffffffffffffffffffffffffffffff16815260200190815260200160002060008573ffffffffffffffffffffffffffffffffffffffff1673ffffffffffffffffffffffffffffffffffffffff168152602001908152602001600020819055508273ffffffffffffffffffffffffffffffffffffffff163373ffffffffffffffffffffffffffffffffffffffff167f8c5be1e5ebec7d5bd14f71427d1e84f3dd0314c0f7b2291e5b200ac8c7c3b9258460405161047b91906110bd565b60405180910390a36001905092915050565b60025481565b600080600460008673ffffffffffffffffffffffffffffffffffffffff1673ffffffffffffffffffffffffffffffffffffffff16815260200190815260200160002060003373ffffffffffffffffffffffffffffffffffffffff1673ffffffffffffffffffffffffffffffffffffffff1681526020019081526020016000205490507fffffffffffffffffffffffffffffffffffffffffffffffffffffffffffffffff81146105c95782816105489190611530565b600460008773ffffffffffffffffffffffffffffffffffffffff1673ffffffffffffffffffffffffffffffffffffffff16815260200190815260200160002060003373ffffffffffffffffffffffffffffffffffffffff1673ffffffffffffffffffffffffffffffffffffffff168152602001908152602001600020819055505b82600360008773ffffffffffffffffffffffffffffffffffffffff1673ffffffffffffffffffffffffffffffffffffffff16815260200190815260200160002060008282546106189190611530565b9250508190555082600360008673ffffffffffffffffffffffffffffffffffffffff1673ffffffffffffffffffffffffffffffffffffffff168152602001908152602001600020600082825401925050819055508373ffffffffffffffffffffffffffffffffffffffff168573ffffffffffffffffffffffffffffffffffffffff167fddf252ad1be2c89b69c2b068fc378daa952ba7f163c4a11628f55a4df523b3ef856040516106c991906110bd565b60405180910390a360019150509392505050565b7f000000000000000000000000000000000000000000000000000000000000000081565b60007f0000000000000000000000000000000000000000000000000000000000000000461461073757610732610cf5565b610759565b7f00000000000000000000000000000000000000000000000000000000000000005b905090565b600061076a84846108c3565b508373ffffffffffffffffffffffffffffffffffffffff163373ffffffffffffffffffffffffffffffffffffffff167fe19260aff97b920c7df27010903aeb9c8d2be5d310a2c67824cf3f15396e4c1685856040516107ca9291906115b9565b60405180910390a36107db84610d81565b156107ec576107eb848484610d94565b5b600190509392505050565b6108018282610e0e565b5050565b60036020528060005260406000206000915090505481565b60056020528060005260406000206000915090505481565b60018054610842906114d0565b80601f016020809104026020016040519081016040528092919081815260200182805461086e906114d0565b80156108bb5780601f10610890576101008083540402835291602001916108bb565b820191906000526020600020905b81548152906001019060200180831161089e57829003601f168201915b505050505081565b600081600360003373ffffffffffffffffffffffffffffffffffffffff1673ffffffffffffffffffffffffffffffffffffffff16815260200190815260200160002060008282546109149190611530565b9250508190555081600360008573ffffffffffffffffffffffffffffffffffffffff1673ffffffffffffffffffffffffffffffffffffffff168152602001908152602001600020600082825401925050819055508273ffffffffffffffffffffffffffffffffffffffff163373ffffffffffffffffffffffffffffffffffffffff167fddf252ad1be2c89b69c2b068fc378daa952ba7f163c4a11628f55a4df523b3ef846040516109c591906110bd565b60405180910390a36001905092915050565b42841015610a1a576040517f08c379a0000000000000000000000000000000000000000000000000000000008152600401610a1190611635565b60405180910390fd5b60006001610a26610701565b7f6e71edae12b1b97f4d1f60370fef10105fa2faae0126114a169c64845d6126c98a8a8a600560008f73ffffffffffffffffffffffffffffffffffffffff1673ffffffffffffffffffffffffffffffffffffffff1681526020019081526020016000206000815480929190600101919050558b604051602001610aae96959493929190611664565b60405160208183030381529060405280519060200120604051602001610ad592919061173d565b6040516020818303038152906040528051906020012085858560405160008152602001604052604051610b0b9493929190611774565b6020604051602081039080840390855afa158015610b2d573d6000803e3d6000fd5b505050602060405103519050600073ffffffffffffffffffffffffffffffffffffffff168173ffffffffffffffffffffffffffffffffffffffff1614158015610ba157508773ffffffffffffffffffffffffffffffffffffffff168173ffffffffffffffffffffffffffffffffffffffff16145b610be0576040517f08c379a0000000000000000000000000000000000000000000000000000000008152600401610bd790611805565b60405180910390fd5b85600460008373ffffffffffffffffffffffffffffffffffffffff1673ffffffffffffffffffffffffffffffffffffffff16815260200190815260200160002060008973ffffffffffffffffffffffffffffffffffffffff1673ffffffffffffffffffffffffffffffffffffffff16815260200190815260200160002081905550508573ffffffffffffffffffffffffffffffffffffffff168773ffffffffffffffffffffffffffffffffffffffff167f8c5be1e5ebec7d5bd14f71427d1e84f3dd0314c0f7b2291e5b200ac8c7c3b92587604051610cbf91906110bd565b60405180910390a350505050505050565b6004602052816000526040600020602052806000526040600020600091509150505481565b60007f8b73c3c69bb8fe3d512ecc4cf759cc79239f7b179b0ffacaa9a75d522b39400f6000604051610d2791906118c8565b60405180910390207fc89efdaa54c0f20c7adf612882df0950f5a951637e0307cdcb4c672f298b8bc64630604051602001610d669594939291906118df565b60405160208183030381529060405280519060200120905090565b600080823b905060008111915050919050565b60008390508073ffffffffffffffffffffffffffffffffffffffff1663a4c0ed363385856040518463ffffffff1660e01b8152600401610dd693929190611932565b600060405180830381600087803b158015610df057600080fd5b505af1158015610e04573d6000803e3d6000fd5b5050505050505050565b8060026000828254610e209190611970565b9250508190555080600360008473ffffffffffffffffffffffffffffffffffffffff1673ffffffffffffffffffffffffffffffffffffffff168152602001908152602001600020600082825401925050819055508173ffffffffffffffffffffffffffffffffffffffff16600073ffffffffffffffffffffffffffffffffffffffff167fddf252ad1be2c89b69c2b068fc378daa952ba7f163c4a11628f55a4df523b3ef83604051610ed291906110bd565b60405180910390a35050565b600081519050919050565b600082825260208201905092915050565b60005b83811015610f18578082015181840152602081019050610efd565b60008484015250505050565b6000601f19601f8301169050919050565b6000610f4082610ede565b610f4a8185610ee9565b9350610f5a818560208601610efa565b610f6381610f24565b840191505092915050565b60006020820190508181036000830152610f888184610f35565b905092915050565b6000604051905090565b600080fd5b600080fd5b600073ffffffffffffffffffffffffffffffffffffffff82169050919050565b6000610fcf82610fa4565b9050919050565b610fdf81610fc4565b8114610fea57600080fd5b50565b600081359050610ffc81610fd6565b92915050565b6000819050919050565b61101581611002565b811461102057600080fd5b50565b6000813590506110328161100c565b92915050565b6000806040838503121561104f5761104e610f9a565b5b600061105d85828601610fed565b925050602061106e85828601611023565b9150509250929050565b60008115159050919050565b61108d81611078565b82525050565b60006020820190506110a86000830184611084565b92915050565b6110b781611002565b82525050565b60006020820190506110d260008301846110ae565b92915050565b6000806000606084860312156110f1576110f0610f9a565b5b60006110ff86828701610fed565b935050602061111086828701610fed565b925050604061112186828701611023565b9150509250925092565b600060ff82169050919050565b6111418161112b565b82525050565b600060208201905061115c6000830184611138565b92915050565b6000819050919050565b61117581611162565b82525050565b6000602082019050611190600083018461116c565b92915050565b600080fd5b600080fd5b7f4e487b7100000000000000000000000000000000000000000000000000000000600052604160045260246000fd5b6111d882610f24565b810181811067ffffffffffffffff821117156111f7576111f66111a0565b5b80604052505050565b600061120a610f90565b905061121682826111cf565b919050565b600067ffffffffffffffff821115611236576112356111a0565b5b61123f82610f24565b9050602081019050919050565b82818337600083830152505050565b600061126e6112698461121b565b611200565b90508281526020810184848401111561128a5761128961119b565b5b61129584828561124c565b509392505050565b600082601f8301126112b2576112b1611196565b5b81356112c284826020860161125b565b91505092915050565b6000806000606084860312156112e4576112e3610f9a565b5b60006112f286828701610fed565b935050602061130386828701611023565b925050604084013567ffffffffffffffff81111561132457611323610f9f565b5b6113308682870161129d565b9150509250925092565b6000602082840312156113505761134f610f9a565b5b600061135e84828501610fed565b91505092915050565b6113708161112b565b811461137b57600080fd5b50565b60008135905061138d81611367565b92915050565b61139c81611162565b81146113a757600080fd5b50565b6000813590506113b981611393565b92915050565b600080600080600080600060e0888a0312156113de576113dd610f9a565b5b60006113ec8a828b01610fed565b97505060206113fd8a828b01610fed565b965050604061140e8a828b01611023565b955050606061141f8a828b01611023565b94505060806114308a828b0161137e565b93505060a06114418a828b016113aa565b92505060c06114528a828b016113aa565b91505092959891949750929550565b6000806040838503121561147857611477610f9a565b5b600061148685828601610fed565b925050602061149785828601610fed565b9150509250929050565b7f4e487b7100000000000000000000000000000000000000000000000000000000600052602260045260246000fd5b600060028204905060018216806114e857607f821691505b6020821081036114fb576114fa6114a1565b5b50919050565b7f4e487b7100000000000000000000000000000000000000000000000000000000600052601160045260246000fd5b600061153b82611002565b915061154683611002565b925082820390508181111561155e5761155d611501565b5b92915050565b600081519050919050565b600082825260208201905092915050565b600061158b82611564565b611595818561156f565b93506115a5818560208601610efa565b6115ae81610f24565b840191505092915050565b60006040820190506115ce60008301856110ae565b81810360208301526115e08184611580565b90509392505050565b7f5045524d49545f444541444c494e455f45585049524544000000000000000000600082015250565b600061161f601783610ee9565b915061162a826115e9565b602082019050919050565b6000602082019050818103600083015261164e81611612565b9050919050565b61165e81610fc4565b82525050565b600060c082019050611679600083018961116c565b6116866020830188611655565b6116936040830187611655565b6116a060608301866110ae565b6116ad60808301856110ae565b6116ba60a08301846110ae565b979650505050505050565b600081905092915050565b7f1901000000000000000000000000000000000000000000000000000000000000600082015250565b60006117066002836116c5565b9150611711826116d0565b600282019050919050565b6000819050919050565b61173761173282611162565b61171c565b82525050565b6000611748826116f9565b91506117548285611726565b6020820191506117648284611726565b6020820191508190509392505050565b6000608082019050611789600083018761116c565b6117966020830186611138565b6117a3604083018561116c565b6117b0606083018461116c565b95945050505050565b7f494e56414c49445f5349474e4552000000000000000000000000000000000000600082015250565b60006117ef600e83610ee9565b91506117fa826117b9565b602082019050919050565b6000602082019050818103600083015261181e816117e2565b9050919050565b600081905092915050565b60008190508160005260206000209050919050565b60008154611852816114d0565b61185c8186611825565b94506001821660008114611877576001811461188c576118bf565b60ff19831686528115158202860193506118bf565b61189585611830565b60005b838110156118b757815481890152600182019150602081019050611898565b838801955050505b50505092915050565b60006118d48284611845565b915081905092915050565b600060a0820190506118f4600083018861116c565b611901602083018761116c565b61190e604083018661116c565b61191b60608301856110ae565b6119286080830184611655565b9695505050505050565b60006060820190506119476000830186611655565b61195460208301856110ae565b81810360408301526119668184611580565b9050949350505050565b600061197b82611002565b915061198683611002565b925082820190508082111561199e5761199d611501565b5b9291505056fea26469706673582212206b85ec74750000f17bd83042d825a9e20b039c7d39b5e430fb43d1ac050c25b664736f6c63430008130033","linkReferences":{}},"methodIdentifiers":{"DOMAIN_SEPARATOR()":"3644e515","allowance(address,address)":"dd62ed3e","approve(address,uint256)":"095ea7b3","balanceOf(address)":"70a08231","decimals()":"313ce567","mint(address,uint256)":"40c10f19","name()":"06fdde03","nonces(address)":"7ecebe00","permit(address,address,uint256,uint256,uint8,bytes32,bytes32)":"d505accf","symbol()":"95d89b41","totalSupply()":"18160ddd","transfer(address,uint256)":"a9059cbb","transferAndCall(address,uint256,bytes)":"4000aea0","transferFrom(address,address,uint256)":"23b872dd"},"id":41}