{"abi":[{"type":"constructor","inputs":[{"name":"entranceFee","type":"uint256","internalType":"uint256"},{"name":"interval","type":"uint256","internalType":"uint256"},{"name":"vrfCoordinator","type":"address","internalType":"address"},{"name":"gasLane","type":"bytes32","internalType":"bytes32"},{"name":"subscriptionId","type":"uint256","internalType":"uint256"},{"name":"callbackGasLimit","type":"uint32","internalType":"uint32"}],"stateMutability":"nonpayable"},{"type":"function","name":"acceptOwnership","inputs":[],"outputs":[],"stateMutability":"nonpayable"},{"type":"function","name":"checkUpkeep","inputs":[{"name":"","type":"bytes","internalType":"bytes"}],"outputs":[{"name":"upkeepNeeded","type":"bool","internalType":"bool"},{"name":"","type":"bytes","internalType":"bytes"}],"stateMutability":"view"},{"type":"function","name":"enterLottery","inputs":[],"outputs":[],"stateMutability":"payable"},{"type":"function","name":"getEntranceFee","inputs":[],"outputs":[{"name":"","type":"uint256","internalType":"uint256"}],"stateMutability":"view"},{"type":"function","name":"getLotteryState","inputs":[],"outputs":[{"name":"","type":"uint8","internalType":"enum Lottery.LotteryState"}],"stateMutability":"view"},{"type":"function","name":"getPlayer","inputs":[{"name":"indexOfPlayer","type":"uint256","internalType":"uint256"}],"outputs":[{"name":"","type":"address","internalType":"address"}],"stateMutability":"view"},{"type":"function","name":"owner","inputs":[],"outputs":[{"name":"","type":"address","internalType":"address"}],"stateMutability":"view"},{"type":"function","name":"performUpKeep","inputs":[{"name":"","type":"bytes","internalType":"bytes"}],"outputs":[],"stateMutability":"nonpayable"},{"type":"function","name":"rawFulfillRandomWords","inputs":[{"name":"requestId","type":"uint256","internalType":"uint256"},{"name":"randomWords","type":"uint256[]","internalType":"uint256[]"}],"outputs":[],"stateMutability":"nonpayable"},{"type":"function","name":"s_vrfCoordinator","inputs":[],"outputs":[{"name":"","type":"address","internalType":"contract IVRFCoordinatorV2Plus"}],"stateMutability":"view"},{"type":"function","name":"setCoordinator","inputs":[{"name":"_vrfCoordinator","type":"address","internalType":"address"}],"outputs":[],"stateMutability":"nonpayable"},{"type":"function","name":"transferOwnership","inputs":[{"name":"to","type":"address","internalType":"address"}],"outputs":[],"stateMutability":"nonpayable"},{"type":"event","name":"CoordinatorSet","inputs":[{"name":"vrfCoordinator","type":"address","indexed":false,"internalType":"address"}],"anonymous":false},{"type":"event","name":"OwnershipTransferRequested","inputs":[{"name":"from","type":"address","indexed":true,"internalType":"address"},{"name":"to","type":"address","indexed":true,"internalType":"address"}],"anonymous":false},{"type":"event","name":"OwnershipTransferred","inputs":[{"name":"from","type":"address","indexed":true,"internalType":"address"},{"name":"to","type":"address","indexed":true,"internalType":"address"}],"anonymous":false},{"type":"event","name":"PlayerEntered","inputs":[{"name":"player","type":"address","indexed":true,"internalType":"address"}],"anonymous":false},{"type":"event","name":"WinnerPicked","inputs":[{"name":"player","type":"address","indexed":true,"internalType":"address"}],"anonymous":false},{"type":"error","name":"Lottery__LotteryNotOpened","inputs":[]},{"type":"error","name":"Lottery__SendMoreEthToParticipate","inputs":[]},{"type":"error","name":"Lottery__TrandferFailed","inputs":[]},{"type":"error","name":"Lottery__UpkeepNotNeeded","inputs":[{"name":"balance","type":"uint256","internalType":"uint256"},{"name":"playersLength","type":"uint256","internalType":"uint256"},{"name":"raffleState","type":"uint256","internalType":"uint256"}]},{"type":"error","name":"OnlyCoordinatorCanFulfill","inputs":[{"name":"have","type":"address","internalType":"address"},{"name":"want","type":"address","internalType":"address"}]},{"type":"error","name":"OnlyOwnerOrCoordinator","inputs":[{"name":"have","type":"address","internalType":"address"},{"name":"owner","type":"address","internalType":"address"},{"name":"coordinator","type":"address","internalType":"address"}]},{"type":"error","name":"ZeroAddress","inputs":[]}],"bytecode":{"object":"0x6101006040523480156200001257600080fd5b506040516200234a3803806200234a8339818101604052810190620000389190620004b3565b83338060008073ffffffffffffffffffffffffffffffffffffffff168273ffffffffffffffffffffffffffffffffffffffff1603620000ae576040517f08c379a0000000000000000000000000000000000000000000000000000000008152600401620000a590620005b0565b60405180910390fd5b816000806101000a81548173ffffffffffffffffffffffffffffffffffffffff021916908373ffffffffffffffffffffffffffffffffffffffff160217905550600073ffffffffffffffffffffffffffffffffffffffff168173ffffffffffffffffffffffffffffffffffffffff1614620001355762000134816200026360201b60201c565b5b505050600073ffffffffffffffffffffffffffffffffffffffff168173ffffffffffffffffffffffffffffffffffffffff16036200019f576040517fd92e233d00000000000000000000000000000000000000000000000000000000815260040160405180910390fd5b80600260006101000a81548173ffffffffffffffffffffffffffffffffffffffff021916908373ffffffffffffffffffffffffffffffffffffffff1602179055505085608081815250508460a081815250508260c081815250508160e0818152505080600260146101000a81548163ffffffff021916908363ffffffff160217905550426004819055506000600560146101000a81548160ff02191690836001811115620002525762000251620005d2565b5b021790555050505050505062000673565b3373ffffffffffffffffffffffffffffffffffffffff168173ffffffffffffffffffffffffffffffffffffffff1603620002d4576040517f08c379a0000000000000000000000000000000000000000000000000000000008152600401620002cb9062000651565b60405180910390fd5b80600160006101000a81548173ffffffffffffffffffffffffffffffffffffffff021916908373ffffffffffffffffffffffffffffffffffffffff1602179055508073ffffffffffffffffffffffffffffffffffffffff1660008054906101000a900473ffffffffffffffffffffffffffffffffffffffff1673ffffffffffffffffffffffffffffffffffffffff167fed8889f560326eb138920d842192f0eb3dd22b4f139c87a2c57538e05bae127860405160405180910390a350565b600080fd5b6000819050919050565b620003ac8162000397565b8114620003b857600080fd5b50565b600081519050620003cc81620003a1565b92915050565b600073ffffffffffffffffffffffffffffffffffffffff82169050919050565b6000620003ff82620003d2565b9050919050565b6200041181620003f2565b81146200041d57600080fd5b50565b600081519050620004318162000406565b92915050565b6000819050919050565b6200044c8162000437565b81146200045857600080fd5b50565b6000815190506200046c8162000441565b92915050565b600063ffffffff82169050919050565b6200048d8162000472565b81146200049957600080fd5b50565b600081519050620004ad8162000482565b92915050565b60008060008060008060c08789031215620004d357620004d262000392565b5b6000620004e389828a01620003bb565b9650506020620004f689828a01620003bb565b95505060406200050989828a0162000420565b94505060606200051c89828a016200045b565b93505060806200052f89828a01620003bb565b92505060a06200054289828a016200049c565b9150509295509295509295565b600082825260208201905092915050565b7f43616e6e6f7420736574206f776e657220746f207a65726f0000000000000000600082015250565b6000620005986018836200054f565b9150620005a58262000560565b602082019050919050565b60006020820190508181036000830152620005cb8162000589565b9050919050565b7f4e487b7100000000000000000000000000000000000000000000000000000000600052602160045260246000fd5b7f43616e6e6f74207472616e7366657220746f2073656c66000000000000000000600082015250565b6000620006396017836200054f565b9150620006468262000601565b602082019050919050565b600060208201905081810360008301526200066c816200062a565b9050919050565b60805160a05160c05160e051611c96620006b460003960006104c40152600061049e015260006105aa01526000818161029c0152610a2b0152611c966000f3fe6080604052600436106100a75760003560e01c80638da5cb5b116100645780638da5cb5b146101a95780638ea98117146101d45780639eccacf6146101fd578063c1af578514610228578063e55ae4e814610232578063f2fde38b1461026f576100a7565b806309bc33a7146100ac5780631fe543e3146100d75780636b68c03c146101005780636c7c8f171461012b5780636e04ff0d1461015457806379ba509714610192575b600080fd5b3480156100b857600080fd5b506100c1610298565b6040516100ce9190611156565b60405180910390f35b3480156100e357600080fd5b506100fe60048036038101906100f99190611216565b6102c0565b005b34801561010c57600080fd5b50610115610386565b60405161012291906112ed565b60405180910390f35b34801561013757600080fd5b50610152600480360381019061014d919061135e565b61039d565b005b34801561016057600080fd5b5061017b600480360381019061017691906114ec565b6105a2565b6040516101899291906115cf565b60405180910390f35b34801561019e57600080fd5b506101a7610664565b005b3480156101b557600080fd5b506101be6107f9565b6040516101cb9190611640565b60405180910390f35b3480156101e057600080fd5b506101fb60048036038101906101f69190611687565b610822565b005b34801561020957600080fd5b50610212610a03565b60405161021f9190611713565b60405180910390f35b610230610a29565b005b34801561023e57600080fd5b506102596004803603810190610254919061172e565b610b98565b6040516102669190611640565b60405180910390f35b34801561027b57600080fd5b5061029660048036038101906102919190611687565b610be0565b005b60007f0000000000000000000000000000000000000000000000000000000000000000905090565b600260009054906101000a900473ffffffffffffffffffffffffffffffffffffffff1673ffffffffffffffffffffffffffffffffffffffff163373ffffffffffffffffffffffffffffffffffffffff16146103765733600260009054906101000a900473ffffffffffffffffffffffffffffffffffffffff166040517f1cf993f400000000000000000000000000000000000000000000000000000000815260040161036d92919061175b565b60405180910390fd5b610381838383610bf4565b505050565b6000600560149054906101000a900460ff16905090565b60006103b7604051806020016040528060008152506105a2565b509050806104265747600380549050600560149054906101000a900460ff1660018111156103e8576103e7611276565b5b6040517f6e195f2500000000000000000000000000000000000000000000000000000000815260040161041d93929190611784565b60405180910390fd5b6001600560146101000a81548160ff0219169083600181111561044c5761044b611276565b5b02179055506000600260009054906101000a900473ffffffffffffffffffffffffffffffffffffffff1673ffffffffffffffffffffffffffffffffffffffff16639b1c385e6040518060c001604052807f000000000000000000000000000000000000000000000000000000000000000081526020017f00000000000000000000000000000000000000000000000000000000000000008152602001600361ffff168152602001600260149054906101000a900463ffffffff1663ffffffff168152602001600163ffffffff168152602001610538604051806020016040528060001515815250610e42565b8152506040518263ffffffff1660e01b815260040161055791906118f2565b6020604051808303816000875af1158015610576573d6000803e3d6000fd5b505050506040513d601f19601f8201168201806040525081019061059a9190611929565b905050505050565b6000606060007f0000000000000000000000000000000000000000000000000000000000000000600454426105d79190611985565b1015905060008060018111156105f0576105ef611276565b5b600560149054906101000a900460ff16600181111561061257610611611276565b5b149050600080471190506000806003805490501190508380156106325750825b801561063b5750815b80156106445750805b955085604051806020016040528060008152509550955050505050915091565b600160009054906101000a900473ffffffffffffffffffffffffffffffffffffffff1673ffffffffffffffffffffffffffffffffffffffff163373ffffffffffffffffffffffffffffffffffffffff16146106f4576040517f08c379a00000000000000000000000000000000000000000000000000000000081526004016106eb90611a16565b60405180910390fd5b60008060009054906101000a900473ffffffffffffffffffffffffffffffffffffffff169050336000806101000a81548173ffffffffffffffffffffffffffffffffffffffff021916908373ffffffffffffffffffffffffffffffffffffffff1602179055506000600160006101000a81548173ffffffffffffffffffffffffffffffffffffffff021916908373ffffffffffffffffffffffffffffffffffffffff1602179055503373ffffffffffffffffffffffffffffffffffffffff168173ffffffffffffffffffffffffffffffffffffffff167f8be0079c531659141344cd1fd0a4f28419497f9722a3daafe3b4186f6b6457e060405160405180910390a350565b60008060009054906101000a900473ffffffffffffffffffffffffffffffffffffffff16905090565b61082a6107f9565b73ffffffffffffffffffffffffffffffffffffffff163373ffffffffffffffffffffffffffffffffffffffff16141580156108b35750600260009054906101000a900473ffffffffffffffffffffffffffffffffffffffff1673ffffffffffffffffffffffffffffffffffffffff163373ffffffffffffffffffffffffffffffffffffffff1614155b1561092257336108c16107f9565b600260009054906101000a900473ffffffffffffffffffffffffffffffffffffffff166040517f061db9c100000000000000000000000000000000000000000000000000000000815260040161091993929190611a36565b60405180910390fd5b600073ffffffffffffffffffffffffffffffffffffffff168173ffffffffffffffffffffffffffffffffffffffff1603610988576040517fd92e233d00000000000000000000000000000000000000000000000000000000815260040160405180910390fd5b80600260006101000a81548173ffffffffffffffffffffffffffffffffffffffff021916908373ffffffffffffffffffffffffffffffffffffffff1602179055507fd1a6a14209a385a964d036e404cb5cfb71f4000cdb03c9366292430787261be6816040516109f89190611640565b60405180910390a150565b600260009054906101000a900473ffffffffffffffffffffffffffffffffffffffff1681565b7f0000000000000000000000000000000000000000000000000000000000000000341015610a83576040517f8dee033a00000000000000000000000000000000000000000000000000000000815260040160405180910390fd5b6003339080600181540180825580915050600190039060005260206000200160009091909190916101000a81548173ffffffffffffffffffffffffffffffffffffffff021916908373ffffffffffffffffffffffffffffffffffffffff1602179055503373ffffffffffffffffffffffffffffffffffffffff167f4d999952f9aa655a216ee2df5968ca0e670e9582ddc96cfe7d8168114b8ca37f60405160405180910390a260006001811115610b3d57610b3c611276565b5b600560149054906101000a900460ff166001811115610b5f57610b5e611276565b5b14610b96576040517fb4fba98600000000000000000000000000000000000000000000000000000000815260040160405180910390fd5b565b600060038281548110610bae57610bad611a6d565b5b9060005260206000200160009054906101000a900473ffffffffffffffffffffffffffffffffffffffff169050919050565b610be8610eda565b610bf181610f6a565b50565b600060038054905083836000818110610c1057610c0f611a6d565b5b90506020020135610c219190611acb565b9050600060038281548110610c3957610c38611a6d565b5b9060005260206000200160009054906101000a900473ffffffffffffffffffffffffffffffffffffffff16905080600560006101000a81548173ffffffffffffffffffffffffffffffffffffffff021916908373ffffffffffffffffffffffffffffffffffffffff1602179055506000600560146101000a81548160ff02191690836001811115610ccd57610ccc611276565b5b0217905550600067ffffffffffffffff811115610ced57610cec6113c1565b5b604051908082528060200260200182016040528015610d1b5781602001602082028036833780820191505090505b5060039080519060200190610d31929190611096565b5060008173ffffffffffffffffffffffffffffffffffffffff1647604051610d5890611b2d565b60006040518083038185875af1925050503d8060008114610d95576040519150601f19603f3d011682016040523d82523d6000602084013e610d9a565b606091505b5050905080610dd5576040517ff0629e1700000000000000000000000000000000000000000000000000000000815260040160405180910390fd5b600560009054906101000a900473ffffffffffffffffffffffffffffffffffffffff1673ffffffffffffffffffffffffffffffffffffffff167f5b690ec4a06fe979403046eaeea5b3ce38524683c3001f662c8b5a829632f7df60405160405180910390a2505050505050565b60607f92fd13387c7fe7befbc38d303d6468778fb9731bc4583f17d92989c6fcfdeaaa82604051602401610e769190611b6d565b604051602081830303815290604052907bffffffffffffffffffffffffffffffffffffffffffffffffffffffff19166020820180517bffffffffffffffffffffffffffffffffffffffffffffffffffffffff83818316178352505050509050919050565b60008054906101000a900473ffffffffffffffffffffffffffffffffffffffff1673ffffffffffffffffffffffffffffffffffffffff163373ffffffffffffffffffffffffffffffffffffffff1614610f68576040517f08c379a0000000000000000000000000000000000000000000000000000000008152600401610f5f90611bd4565b60405180910390fd5b565b3373ffffffffffffffffffffffffffffffffffffffff168173ffffffffffffffffffffffffffffffffffffffff1603610fd8576040517f08c379a0000000000000000000000000000000000000000000000000000000008152600401610fcf90611c40565b60405180910390fd5b80600160006101000a81548173ffffffffffffffffffffffffffffffffffffffff021916908373ffffffffffffffffffffffffffffffffffffffff1602179055508073ffffffffffffffffffffffffffffffffffffffff1660008054906101000a900473ffffffffffffffffffffffffffffffffffffffff1673ffffffffffffffffffffffffffffffffffffffff167fed8889f560326eb138920d842192f0eb3dd22b4f139c87a2c57538e05bae127860405160405180910390a350565b82805482825590600052602060002090810192821561110f579160200282015b8281111561110e5782518260006101000a81548173ffffffffffffffffffffffffffffffffffffffff021916908373ffffffffffffffffffffffffffffffffffffffff160217905550916020019190600101906110b6565b5b50905061111c9190611120565b5090565b5b80821115611139576000816000905550600101611121565b5090565b6000819050919050565b6111508161113d565b82525050565b600060208201905061116b6000830184611147565b92915050565b6000604051905090565b600080fd5b600080fd5b61118e8161113d565b811461119957600080fd5b50565b6000813590506111ab81611185565b92915050565b600080fd5b600080fd5b600080fd5b60008083601f8401126111d6576111d56111b1565b5b8235905067ffffffffffffffff8111156111f3576111f26111b6565b5b60208301915083602082028301111561120f5761120e6111bb565b5b9250929050565b60008060006040848603121561122f5761122e61117b565b5b600061123d8682870161119c565b935050602084013567ffffffffffffffff81111561125e5761125d611180565b5b61126a868287016111c0565b92509250509250925092565b7f4e487b7100000000000000000000000000000000000000000000000000000000600052602160045260246000fd5b600281106112b6576112b5611276565b5b50565b60008190506112c7826112a5565b919050565b60006112d7826112b9565b9050919050565b6112e7816112cc565b82525050565b600060208201905061130260008301846112de565b92915050565b60008083601f84011261131e5761131d6111b1565b5b8235905067ffffffffffffffff81111561133b5761133a6111b6565b5b602083019150836001820283011115611357576113566111bb565b5b9250929050565b600080602083850312156113755761137461117b565b5b600083013567ffffffffffffffff81111561139357611392611180565b5b61139f85828601611308565b92509250509250929050565b600080fd5b6000601f19601f8301169050919050565b7f4e487b7100000000000000000000000000000000000000000000000000000000600052604160045260246000fd5b6113f9826113b0565b810181811067ffffffffffffffff82111715611418576114176113c1565b5b80604052505050565b600061142b611171565b905061143782826113f0565b919050565b600067ffffffffffffffff821115611457576114566113c1565b5b611460826113b0565b9050602081019050919050565b82818337600083830152505050565b600061148f61148a8461143c565b611421565b9050828152602081018484840111156114ab576114aa6113ab565b5b6114b684828561146d565b509392505050565b600082601f8301126114d3576114d26111b1565b5b81356114e384826020860161147c565b91505092915050565b6000602082840312156115025761150161117b565b5b600082013567ffffffffffffffff8111156115205761151f611180565b5b61152c848285016114be565b91505092915050565b60008115159050919050565b61154a81611535565b82525050565b600081519050919050565b600082825260208201905092915050565b60005b8381101561158a57808201518184015260208101905061156f565b60008484015250505050565b60006115a182611550565b6115ab818561155b565b93506115bb81856020860161156c565b6115c4816113b0565b840191505092915050565b60006040820190506115e46000830185611541565b81810360208301526115f68184611596565b90509392505050565b600073ffffffffffffffffffffffffffffffffffffffff82169050919050565b600061162a826115ff565b9050919050565b61163a8161161f565b82525050565b60006020820190506116556000830184611631565b92915050565b6116648161161f565b811461166f57600080fd5b50565b6000813590506116818161165b565b92915050565b60006020828403121561169d5761169c61117b565b5b60006116ab84828501611672565b91505092915050565b6000819050919050565b60006116d96116d46116cf846115ff565b6116b4565b6115ff565b9050919050565b60006116eb826116be565b9050919050565b60006116fd826116e0565b9050919050565b61170d816116f2565b82525050565b60006020820190506117286000830184611704565b92915050565b6000602082840312156117445761174361117b565b5b60006117528482850161119c565b91505092915050565b60006040820190506117706000830185611631565b61177d6020830184611631565b9392505050565b60006060820190506117996000830186611147565b6117a66020830185611147565b6117b36040830184611147565b949350505050565b6000819050919050565b6117ce816117bb565b82525050565b6117dd8161113d565b82525050565b600061ffff82169050919050565b6117fa816117e3565b82525050565b600063ffffffff82169050919050565b61181981611800565b82525050565b600082825260208201905092915050565b600061183b82611550565b611845818561181f565b935061185581856020860161156c565b61185e816113b0565b840191505092915050565b600060c08301600083015161188160008601826117c5565b50602083015161189460208601826117d4565b5060408301516118a760408601826117f1565b5060608301516118ba6060860182611810565b5060808301516118cd6080860182611810565b5060a083015184820360a08601526118e58282611830565b9150508091505092915050565b6000602082019050818103600083015261190c8184611869565b905092915050565b60008151905061192381611185565b92915050565b60006020828403121561193f5761193e61117b565b5b600061194d84828501611914565b91505092915050565b7f4e487b7100000000000000000000000000000000000000000000000000000000600052601160045260246000fd5b60006119908261113d565b915061199b8361113d565b92508282039050818111156119b3576119b2611956565b5b92915050565b600082825260208201905092915050565b7f4d7573742062652070726f706f736564206f776e657200000000000000000000600082015250565b6000611a006016836119b9565b9150611a0b826119ca565b602082019050919050565b60006020820190508181036000830152611a2f816119f3565b9050919050565b6000606082019050611a4b6000830186611631565b611a586020830185611631565b611a656040830184611631565b949350505050565b7f4e487b7100000000000000000000000000000000000000000000000000000000600052603260045260246000fd5b7f4e487b7100000000000000000000000000000000000000000000000000000000600052601260045260246000fd5b6000611ad68261113d565b9150611ae18361113d565b925082611af157611af0611a9c565b5b828206905092915050565b600081905092915050565b50565b6000611b17600083611afc565b9150611b2282611b07565b600082019050919050565b6000611b3882611b0a565b9150819050919050565b611b4b81611535565b82525050565b602082016000820151611b676000850182611b42565b50505050565b6000602082019050611b826000830184611b51565b92915050565b7f4f6e6c792063616c6c61626c65206279206f776e657200000000000000000000600082015250565b6000611bbe6016836119b9565b9150611bc982611b88565b602082019050919050565b60006020820190508181036000830152611bed81611bb1565b9050919050565b7f43616e6e6f74207472616e7366657220746f2073656c66000000000000000000600082015250565b6000611c2a6017836119b9565b9150611c3582611bf4565b602082019050919050565b60006020820190508181036000830152611c5981611c1d565b905091905056fea26469706673582212207a311b6d0b3c4a83e04cbefe3da3573a0d07f3a5e552acd826f39911b34efe9e64736f6c63430008130033","linkReferences":{}},"methodIdentifiers":{"acceptOwnership()":"79ba5097","checkUpkeep(bytes)":"6e04ff0d","enterLottery()":"c1af5785","getEntranceFee()":"09bc33a7","getLotteryState()":"6b68c03c","getPlayer(uint256)":"e55ae4e8","owner()":"8da5cb5b","performUpKeep(bytes)":"6c7c8f17","rawFulfillRandomWords(uint256,uint256[])":"1fe543e3","s_vrfCoordinator()":"9eccacf6","setCoordinator(address)":"8ea98117","transferOwnership(address)":"f2fde38b"},"id":40}