{"abi":[{"type":"constructor","inputs":[{"name":"entranceFee","type":"uint256","internalType":"uint256"},{"name":"interval","type":"uint256","internalType":"uint256"},{"name":"vrfCoordinator","type":"address","internalType":"address"},{"name":"gasLane","type":"bytes32","internalType":"bytes32"},{"name":"subscriptionId","type":"uint256","internalType":"uint256"},{"name":"callbackGasLimit","type":"uint32","internalType":"uint32"}],"stateMutability":"nonpayable"},{"type":"function","name":"acceptOwnership","inputs":[],"outputs":[],"stateMutability":"nonpayable"},{"type":"function","name":"enterLottery","inputs":[],"outputs":[],"stateMutability":"payable"},{"type":"function","name":"getEntranceFee","inputs":[],"outputs":[{"name":"","type":"uint256","internalType":"uint256"}],"stateMutability":"view"},{"type":"function","name":"owner","inputs":[],"outputs":[{"name":"","type":"address","internalType":"address"}],"stateMutability":"view"},{"type":"function","name":"pickWinner","inputs":[],"outputs":[],"stateMutability":"nonpayable"},{"type":"function","name":"rawFulfillRandomWords","inputs":[{"name":"requestId","type":"uint256","internalType":"uint256"},{"name":"randomWords","type":"uint256[]","internalType":"uint256[]"}],"outputs":[],"stateMutability":"nonpayable"},{"type":"function","name":"s_vrfCoordinator","inputs":[],"outputs":[{"name":"","type":"address","internalType":"contract IVRFCoordinatorV2Plus"}],"stateMutability":"view"},{"type":"function","name":"setCoordinator","inputs":[{"name":"_vrfCoordinator","type":"address","internalType":"address"}],"outputs":[],"stateMutability":"nonpayable"},{"type":"function","name":"transferOwnership","inputs":[{"name":"to","type":"address","internalType":"address"}],"outputs":[],"stateMutability":"nonpayable"},{"type":"event","name":"CoordinatorSet","inputs":[{"name":"vrfCoordinator","type":"address","indexed":false,"internalType":"address"}],"anonymous":false},{"type":"event","name":"OwnershipTransferRequested","inputs":[{"name":"from","type":"address","indexed":true,"internalType":"address"},{"name":"to","type":"address","indexed":true,"internalType":"address"}],"anonymous":false},{"type":"event","name":"OwnershipTransferred","inputs":[{"name":"from","type":"address","indexed":true,"internalType":"address"},{"name":"to","type":"address","indexed":true,"internalType":"address"}],"anonymous":false},{"type":"event","name":"PlayerEntered","inputs":[{"name":"player","type":"address","indexed":true,"internalType":"address"}],"anonymous":false},{"type":"error","name":"Lottery__SendMoreEthToParticipate","inputs":[]},{"type":"error","name":"OnlyCoordinatorCanFulfill","inputs":[{"name":"have","type":"address","internalType":"address"},{"name":"want","type":"address","internalType":"address"}]},{"type":"error","name":"OnlyOwnerOrCoordinator","inputs":[{"name":"have","type":"address","internalType":"address"},{"name":"owner","type":"address","internalType":"address"},{"name":"coordinator","type":"address","internalType":"address"}]},{"type":"error","name":"ZeroAddress","inputs":[]}],"bytecode":{"object":"0x6101006040523480156200001257600080fd5b506040516200189f3803806200189f833981810160405281019062000038919062000485565b83338060008073ffffffffffffffffffffffffffffffffffffffff168273ffffffffffffffffffffffffffffffffffffffff1603620000ae576040517f08c379a0000000000000000000000000000000000000000000000000000000008152600401620000a59062000582565b60405180910390fd5b816000806101000a81548173ffffffffffffffffffffffffffffffffffffffff021916908373ffffffffffffffffffffffffffffffffffffffff160217905550600073ffffffffffffffffffffffffffffffffffffffff168173ffffffffffffffffffffffffffffffffffffffff1614620001355762000134816200023560201b60201c565b5b505050600073ffffffffffffffffffffffffffffffffffffffff168173ffffffffffffffffffffffffffffffffffffffff16036200019f576040517fd92e233d00000000000000000000000000000000000000000000000000000000815260040160405180910390fd5b80600260006101000a81548173ffffffffffffffffffffffffffffffffffffffff021916908373ffffffffffffffffffffffffffffffffffffffff1602179055505085608081815250508460a08181525050426004819055508260c081815250508160e0818152505080600260146101000a81548163ffffffff021916908363ffffffff16021790555050505050505062000616565b3373ffffffffffffffffffffffffffffffffffffffff168173ffffffffffffffffffffffffffffffffffffffff1603620002a6576040517f08c379a00000000000000000000000000000000000000000000000000000000081526004016200029d90620005f4565b60405180910390fd5b80600160006101000a81548173ffffffffffffffffffffffffffffffffffffffff021916908373ffffffffffffffffffffffffffffffffffffffff1602179055508073ffffffffffffffffffffffffffffffffffffffff1660008054906101000a900473ffffffffffffffffffffffffffffffffffffffff1673ffffffffffffffffffffffffffffffffffffffff167fed8889f560326eb138920d842192f0eb3dd22b4f139c87a2c57538e05bae127860405160405180910390a350565b600080fd5b6000819050919050565b6200037e8162000369565b81146200038a57600080fd5b50565b6000815190506200039e8162000373565b92915050565b600073ffffffffffffffffffffffffffffffffffffffff82169050919050565b6000620003d182620003a4565b9050919050565b620003e381620003c4565b8114620003ef57600080fd5b50565b6000815190506200040381620003d8565b92915050565b6000819050919050565b6200041e8162000409565b81146200042a57600080fd5b50565b6000815190506200043e8162000413565b92915050565b600063ffffffff82169050919050565b6200045f8162000444565b81146200046b57600080fd5b50565b6000815190506200047f8162000454565b92915050565b60008060008060008060c08789031215620004a557620004a462000364565b5b6000620004b589828a016200038d565b9650506020620004c889828a016200038d565b9550506040620004db89828a01620003f2565b9450506060620004ee89828a016200042d565b93505060806200050189828a016200038d565b92505060a06200051489828a016200046e565b9150509295509295509295565b600082825260208201905092915050565b7f43616e6e6f7420736574206f776e657220746f207a65726f0000000000000000600082015250565b60006200056a60188362000521565b9150620005778262000532565b602082019050919050565b600060208201905081810360008301526200059d816200055b565b9050919050565b7f43616e6e6f74207472616e7366657220746f2073656c66000000000000000000600082015250565b6000620005dc60178362000521565b9150620005e982620005a4565b602082019050919050565b600060208201905081810360008301526200060f81620005cd565b9050919050565b60805160a05160c05160e05161124862000657600039600061035a01526000610334015260006102af0152600081816101c301526107fc01526112486000f3fe6080604052600436106100865760003560e01c80638da5cb5b116100595780638da5cb5b1461010d5780638ea98117146101385780639eccacf614610161578063c1af57851461018c578063f2fde38b1461019657610086565b806309bc33a71461008b5780631fe543e3146100b65780635d495aea146100df57806379ba5097146100f6575b600080fd5b34801561009757600080fd5b506100a06101bf565b6040516100ad9190610b82565b60405180910390f35b3480156100c257600080fd5b506100dd60048036038101906100d89190610c38565b6101e7565b005b3480156100eb57600080fd5b506100f46102ad565b005b34801561010257600080fd5b5061010b610435565b005b34801561011957600080fd5b506101226105ca565b60405161012f9190610cd9565b60405180910390f35b34801561014457600080fd5b5061015f600480360381019061015a9190610d20565b6105f3565b005b34801561016d57600080fd5b506101766107d4565b6040516101839190610dac565b60405180910390f35b6101946107fa565b005b3480156101a257600080fd5b506101bd60048036038101906101b89190610d20565b6108fc565b005b60007f0000000000000000000000000000000000000000000000000000000000000000905090565b600260009054906101000a900473ffffffffffffffffffffffffffffffffffffffff1673ffffffffffffffffffffffffffffffffffffffff163373ffffffffffffffffffffffffffffffffffffffff161461029d5733600260009054906101000a900473ffffffffffffffffffffffffffffffffffffffff166040517f1cf993f4000000000000000000000000000000000000000000000000000000008152600401610294929190610dc7565b60405180910390fd5b6102a8838383610910565b505050565b7f0000000000000000000000000000000000000000000000000000000000000000600454426102dc9190610e1f565b11156102e757600080fd5b6000600260009054906101000a900473ffffffffffffffffffffffffffffffffffffffff1673ffffffffffffffffffffffffffffffffffffffff16639b1c385e6040518060c001604052807f000000000000000000000000000000000000000000000000000000000000000081526020017f00000000000000000000000000000000000000000000000000000000000000008152602001600361ffff168152602001600260149054906101000a900463ffffffff1663ffffffff168152602001600163ffffffff1681526020016103ce604051806020016040528060001515815250610915565b8152506040518263ffffffff1660e01b81526004016103ed9190610fd0565b6020604051808303816000875af115801561040c573d6000803e3d6000fd5b505050506040513d601f19601f820116820180604052508101906104309190611007565b905050565b600160009054906101000a900473ffffffffffffffffffffffffffffffffffffffff1673ffffffffffffffffffffffffffffffffffffffff163373ffffffffffffffffffffffffffffffffffffffff16146104c5576040517f08c379a00000000000000000000000000000000000000000000000000000000081526004016104bc90611091565b60405180910390fd5b60008060009054906101000a900473ffffffffffffffffffffffffffffffffffffffff169050336000806101000a81548173ffffffffffffffffffffffffffffffffffffffff021916908373ffffffffffffffffffffffffffffffffffffffff1602179055506000600160006101000a81548173ffffffffffffffffffffffffffffffffffffffff021916908373ffffffffffffffffffffffffffffffffffffffff1602179055503373ffffffffffffffffffffffffffffffffffffffff168173ffffffffffffffffffffffffffffffffffffffff167f8be0079c531659141344cd1fd0a4f28419497f9722a3daafe3b4186f6b6457e060405160405180910390a350565b60008060009054906101000a900473ffffffffffffffffffffffffffffffffffffffff16905090565b6105fb6105ca565b73ffffffffffffffffffffffffffffffffffffffff163373ffffffffffffffffffffffffffffffffffffffff16141580156106845750600260009054906101000a900473ffffffffffffffffffffffffffffffffffffffff1673ffffffffffffffffffffffffffffffffffffffff163373ffffffffffffffffffffffffffffffffffffffff1614155b156106f357336106926105ca565b600260009054906101000a900473ffffffffffffffffffffffffffffffffffffffff166040517f061db9c10000000000000000000000000000000000000000000000000000000081526004016106ea939291906110b1565b60405180910390fd5b600073ffffffffffffffffffffffffffffffffffffffff168173ffffffffffffffffffffffffffffffffffffffff1603610759576040517fd92e233d00000000000000000000000000000000000000000000000000000000815260040160405180910390fd5b80600260006101000a81548173ffffffffffffffffffffffffffffffffffffffff021916908373ffffffffffffffffffffffffffffffffffffffff1602179055507fd1a6a14209a385a964d036e404cb5cfb71f4000cdb03c9366292430787261be6816040516107c99190610cd9565b60405180910390a150565b600260009054906101000a900473ffffffffffffffffffffffffffffffffffffffff1681565b7f0000000000000000000000000000000000000000000000000000000000000000341015610854576040517f8dee033a00000000000000000000000000000000000000000000000000000000815260040160405180910390fd5b6003339080600181540180825580915050600190039060005260206000200160009091909190916101000a81548173ffffffffffffffffffffffffffffffffffffffff021916908373ffffffffffffffffffffffffffffffffffffffff1602179055503373ffffffffffffffffffffffffffffffffffffffff167f4d999952f9aa655a216ee2df5968ca0e670e9582ddc96cfe7d8168114b8ca37f60405160405180910390a2565b6109046109ad565b61090d81610a3d565b50565b505050565b60607f92fd13387c7fe7befbc38d303d6468778fb9731bc4583f17d92989c6fcfdeaaa82604051602401610949919061111f565b604051602081830303815290604052907bffffffffffffffffffffffffffffffffffffffffffffffffffffffff19166020820180517bffffffffffffffffffffffffffffffffffffffffffffffffffffffff83818316178352505050509050919050565b60008054906101000a900473ffffffffffffffffffffffffffffffffffffffff1673ffffffffffffffffffffffffffffffffffffffff163373ffffffffffffffffffffffffffffffffffffffff1614610a3b576040517f08c379a0000000000000000000000000000000000000000000000000000000008152600401610a3290611186565b60405180910390fd5b565b3373ffffffffffffffffffffffffffffffffffffffff168173ffffffffffffffffffffffffffffffffffffffff1603610aab576040517f08c379a0000000000000000000000000000000000000000000000000000000008152600401610aa2906111f2565b60405180910390fd5b80600160006101000a81548173ffffffffffffffffffffffffffffffffffffffff021916908373ffffffffffffffffffffffffffffffffffffffff1602179055508073ffffffffffffffffffffffffffffffffffffffff1660008054906101000a900473ffffffffffffffffffffffffffffffffffffffff1673ffffffffffffffffffffffffffffffffffffffff167fed8889f560326eb138920d842192f0eb3dd22b4f139c87a2c57538e05bae127860405160405180910390a350565b6000819050919050565b610b7c81610b69565b82525050565b6000602082019050610b976000830184610b73565b92915050565b600080fd5b600080fd5b610bb081610b69565b8114610bbb57600080fd5b50565b600081359050610bcd81610ba7565b92915050565b600080fd5b600080fd5b600080fd5b60008083601f840112610bf857610bf7610bd3565b5b8235905067ffffffffffffffff811115610c1557610c14610bd8565b5b602083019150836020820283011115610c3157610c30610bdd565b5b9250929050565b600080600060408486031215610c5157610c50610b9d565b5b6000610c5f86828701610bbe565b935050602084013567ffffffffffffffff811115610c8057610c7f610ba2565b5b610c8c86828701610be2565b92509250509250925092565b600073ffffffffffffffffffffffffffffffffffffffff82169050919050565b6000610cc382610c98565b9050919050565b610cd381610cb8565b82525050565b6000602082019050610cee6000830184610cca565b92915050565b610cfd81610cb8565b8114610d0857600080fd5b50565b600081359050610d1a81610cf4565b92915050565b600060208284031215610d3657610d35610b9d565b5b6000610d4484828501610d0b565b91505092915050565b6000819050919050565b6000610d72610d6d610d6884610c98565b610d4d565b610c98565b9050919050565b6000610d8482610d57565b9050919050565b6000610d9682610d79565b9050919050565b610da681610d8b565b82525050565b6000602082019050610dc16000830184610d9d565b92915050565b6000604082019050610ddc6000830185610cca565b610de96020830184610cca565b9392505050565b7f4e487b7100000000000000000000000000000000000000000000000000000000600052601160045260246000fd5b6000610e2a82610b69565b9150610e3583610b69565b9250828203905081811115610e4d57610e4c610df0565b5b92915050565b6000819050919050565b610e6681610e53565b82525050565b610e7581610b69565b82525050565b600061ffff82169050919050565b610e9281610e7b565b82525050565b600063ffffffff82169050919050565b610eb181610e98565b82525050565b600081519050919050565b600082825260208201905092915050565b60005b83811015610ef1578082015181840152602081019050610ed6565b60008484015250505050565b6000601f19601f8301169050919050565b6000610f1982610eb7565b610f238185610ec2565b9350610f33818560208601610ed3565b610f3c81610efd565b840191505092915050565b600060c083016000830151610f5f6000860182610e5d565b506020830151610f726020860182610e6c565b506040830151610f856040860182610e89565b506060830151610f986060860182610ea8565b506080830151610fab6080860182610ea8565b5060a083015184820360a0860152610fc38282610f0e565b9150508091505092915050565b60006020820190508181036000830152610fea8184610f47565b905092915050565b60008151905061100181610ba7565b92915050565b60006020828403121561101d5761101c610b9d565b5b600061102b84828501610ff2565b91505092915050565b600082825260208201905092915050565b7f4d7573742062652070726f706f736564206f776e657200000000000000000000600082015250565b600061107b601683611034565b915061108682611045565b602082019050919050565b600060208201905081810360008301526110aa8161106e565b9050919050565b60006060820190506110c66000830186610cca565b6110d36020830185610cca565b6110e06040830184610cca565b949350505050565b60008115159050919050565b6110fd816110e8565b82525050565b60208201600082015161111960008501826110f4565b50505050565b60006020820190506111346000830184611103565b92915050565b7f4f6e6c792063616c6c61626c65206279206f776e657200000000000000000000600082015250565b6000611170601683611034565b915061117b8261113a565b602082019050919050565b6000602082019050818103600083015261119f81611163565b9050919050565b7f43616e6e6f74207472616e7366657220746f2073656c66000000000000000000600082015250565b60006111dc601783611034565b91506111e7826111a6565b602082019050919050565b6000602082019050818103600083015261120b816111cf565b905091905056fea2646970667358221220c530c1d2ea70a5ef8d48e3089e55d193dc347e8c756478318668ab00763da3bf64736f6c63430008130033","linkReferences":{}},"methodIdentifiers":{"acceptOwnership()":"79ba5097","enterLottery()":"c1af5785","getEntranceFee()":"09bc33a7","owner()":"8da5cb5b","pickWinner()":"5d495aea","rawFulfillRandomWords(uint256,uint256[])":"1fe543e3","s_vrfCoordinator()":"9eccacf6","setCoordinator(address)":"8ea98117","transferOwnership(address)":"f2fde38b"},"id":8}