{"abi":[{"type":"constructor","inputs":[{"name":"entranceFee","type":"uint256","internalType":"uint256"},{"name":"interval","type":"uint256","internalType":"uint256"},{"name":"vrfCoordinator","type":"address","internalType":"address"},{"name":"gasLane","type":"bytes32","internalType":"bytes32"},{"name":"subscriptionId","type":"uint256","internalType":"uint256"},{"name":"callbackGasLimit","type":"uint32","internalType":"uint32"}],"stateMutability":"nonpayable"},{"type":"function","name":"acceptOwnership","inputs":[],"outputs":[],"stateMutability":"nonpayable"},{"type":"function","name":"checkUpkeep","inputs":[{"name":"","type":"bytes","internalType":"bytes"}],"outputs":[{"name":"upkeepNeeded","type":"bool","internalType":"bool"},{"name":"","type":"bytes","internalType":"bytes"}],"stateMutability":"view"},{"type":"function","name":"enterLottery","inputs":[],"outputs":[],"stateMutability":"payable"},{"type":"function","name":"getEntranceFee","inputs":[],"outputs":[{"name":"","type":"uint256","internalType":"uint256"}],"stateMutability":"view"},{"type":"function","name":"owner","inputs":[],"outputs":[{"name":"","type":"address","internalType":"address"}],"stateMutability":"view"},{"type":"function","name":"performUpKeep","inputs":[{"name":"","type":"bytes","internalType":"bytes"}],"outputs":[],"stateMutability":"nonpayable"},{"type":"function","name":"rawFulfillRandomWords","inputs":[{"name":"requestId","type":"uint256","internalType":"uint256"},{"name":"randomWords","type":"uint256[]","internalType":"uint256[]"}],"outputs":[],"stateMutability":"nonpayable"},{"type":"function","name":"s_vrfCoordinator","inputs":[],"outputs":[{"name":"","type":"address","internalType":"contract IVRFCoordinatorV2Plus"}],"stateMutability":"view"},{"type":"function","name":"setCoordinator","inputs":[{"name":"_vrfCoordinator","type":"address","internalType":"address"}],"outputs":[],"stateMutability":"nonpayable"},{"type":"function","name":"transferOwnership","inputs":[{"name":"to","type":"address","internalType":"address"}],"outputs":[],"stateMutability":"nonpayable"},{"type":"event","name":"CoordinatorSet","inputs":[{"name":"vrfCoordinator","type":"address","indexed":false,"internalType":"address"}],"anonymous":false},{"type":"event","name":"OwnershipTransferRequested","inputs":[{"name":"from","type":"address","indexed":true,"internalType":"address"},{"name":"to","type":"address","indexed":true,"internalType":"address"}],"anonymous":false},{"type":"event","name":"OwnershipTransferred","inputs":[{"name":"from","type":"address","indexed":true,"internalType":"address"},{"name":"to","type":"address","indexed":true,"internalType":"address"}],"anonymous":false},{"type":"event","name":"PlayerEntered","inputs":[{"name":"player","type":"address","indexed":true,"internalType":"address"}],"anonymous":false},{"type":"event","name":"WinnerPicked","inputs":[{"name":"player","type":"address","indexed":true,"internalType":"address"}],"anonymous":false},{"type":"error","name":"Lottery__LotteryNotOpened","inputs":[]},{"type":"error","name":"Lottery__SendMoreEthToParticipate","inputs":[]},{"type":"error","name":"Lottery__TrandferFailed","inputs":[]},{"type":"error","name":"Lottery__UpkeepNotNeeded","inputs":[{"name":"balance","type":"uint256","internalType":"uint256"},{"name":"playersLength","type":"uint256","internalType":"uint256"},{"name":"raffleState","type":"uint256","internalType":"uint256"}]},{"type":"error","name":"OnlyCoordinatorCanFulfill","inputs":[{"name":"have","type":"address","internalType":"address"},{"name":"want","type":"address","internalType":"address"}]},{"type":"error","name":"OnlyOwnerOrCoordinator","inputs":[{"name":"have","type":"address","internalType":"address"},{"name":"owner","type":"address","internalType":"address"},{"name":"coordinator","type":"address","internalType":"address"}]},{"type":"error","name":"ZeroAddress","inputs":[]}],"bytecode":{"object":"0x6101006040523480156200001257600080fd5b50604051620021dd380380620021dd8339818101604052810190620000389190620004b3565b83338060008073ffffffffffffffffffffffffffffffffffffffff168273ffffffffffffffffffffffffffffffffffffffff1603620000ae576040517f08c379a0000000000000000000000000000000000000000000000000000000008152600401620000a590620005b0565b60405180910390fd5b816000806101000a81548173ffffffffffffffffffffffffffffffffffffffff021916908373ffffffffffffffffffffffffffffffffffffffff160217905550600073ffffffffffffffffffffffffffffffffffffffff168173ffffffffffffffffffffffffffffffffffffffff1614620001355762000134816200026360201b60201c565b5b505050600073ffffffffffffffffffffffffffffffffffffffff168173ffffffffffffffffffffffffffffffffffffffff16036200019f576040517fd92e233d00000000000000000000000000000000000000000000000000000000815260040160405180910390fd5b80600260006101000a81548173ffffffffffffffffffffffffffffffffffffffff021916908373ffffffffffffffffffffffffffffffffffffffff1602179055505085608081815250508460a081815250508260c081815250508160e0818152505080600260146101000a81548163ffffffff021916908363ffffffff160217905550426004819055506000600560146101000a81548160ff02191690836001811115620002525762000251620005d2565b5b021790555050505050505062000673565b3373ffffffffffffffffffffffffffffffffffffffff168173ffffffffffffffffffffffffffffffffffffffff1603620002d4576040517f08c379a0000000000000000000000000000000000000000000000000000000008152600401620002cb9062000651565b60405180910390fd5b80600160006101000a81548173ffffffffffffffffffffffffffffffffffffffff021916908373ffffffffffffffffffffffffffffffffffffffff1602179055508073ffffffffffffffffffffffffffffffffffffffff1660008054906101000a900473ffffffffffffffffffffffffffffffffffffffff1673ffffffffffffffffffffffffffffffffffffffff167fed8889f560326eb138920d842192f0eb3dd22b4f139c87a2c57538e05bae127860405160405180910390a350565b600080fd5b6000819050919050565b620003ac8162000397565b8114620003b857600080fd5b50565b600081519050620003cc81620003a1565b92915050565b600073ffffffffffffffffffffffffffffffffffffffff82169050919050565b6000620003ff82620003d2565b9050919050565b6200041181620003f2565b81146200041d57600080fd5b50565b600081519050620004318162000406565b92915050565b6000819050919050565b6200044c8162000437565b81146200045857600080fd5b50565b6000815190506200046c8162000441565b92915050565b600063ffffffff82169050919050565b6200048d8162000472565b81146200049957600080fd5b50565b600081519050620004ad8162000482565b92915050565b60008060008060008060c08789031215620004d357620004d262000392565b5b6000620004e389828a01620003bb565b9650506020620004f689828a01620003bb565b95505060406200050989828a0162000420565b94505060606200051c89828a016200045b565b93505060806200052f89828a01620003bb565b92505060a06200054289828a016200049c565b9150509295509295509295565b600082825260208201905092915050565b7f43616e6e6f7420736574206f776e657220746f207a65726f0000000000000000600082015250565b6000620005986018836200054f565b9150620005a58262000560565b602082019050919050565b60006020820190508181036000830152620005cb8162000589565b9050919050565b7f4e487b7100000000000000000000000000000000000000000000000000000000600052602160045260246000fd5b7f43616e6e6f74207472616e7366657220746f2073656c66000000000000000000600082015250565b6000620006396017836200054f565b9150620006468262000601565b602082019050919050565b600060208201905081810360008301526200066c816200062a565b9050919050565b60805160a05160c05160e051611b29620006b4600039600061042f015260006104090152600061051501526000818161021e01526109960152611b296000f3fe6080604052600436106100915760003560e01c80638da5cb5b116100595780638da5cb5b146101685780638ea98117146101935780639eccacf6146101bc578063c1af5785146101e7578063f2fde38b146101f157610091565b806309bc33a7146100965780631fe543e3146100c15780636c7c8f17146100ea5780636e04ff0d1461011357806379ba509714610151575b600080fd5b3480156100a257600080fd5b506100ab61021a565b6040516100b89190611079565b60405180910390f35b3480156100cd57600080fd5b506100e860048036038101906100e39190611139565b610242565b005b3480156100f657600080fd5b50610111600480360381019061010c91906111ef565b610308565b005b34801561011f57600080fd5b5061013a6004803603810190610135919061137d565b61050d565b604051610148929190611460565b60405180910390f35b34801561015d57600080fd5b506101666105cf565b005b34801561017457600080fd5b5061017d610764565b60405161018a91906114d1565b60405180910390f35b34801561019f57600080fd5b506101ba60048036038101906101b59190611518565b61078d565b005b3480156101c857600080fd5b506101d161096e565b6040516101de91906115a4565b60405180910390f35b6101ef610994565b005b3480156101fd57600080fd5b5061021860048036038101906102139190611518565b610b03565b005b60007f0000000000000000000000000000000000000000000000000000000000000000905090565b600260009054906101000a900473ffffffffffffffffffffffffffffffffffffffff1673ffffffffffffffffffffffffffffffffffffffff163373ffffffffffffffffffffffffffffffffffffffff16146102f85733600260009054906101000a900473ffffffffffffffffffffffffffffffffffffffff166040517f1cf993f40000000000000000000000000000000000000000000000000000000081526004016102ef9291906115bf565b60405180910390fd5b610303838383610b17565b505050565b60006103226040518060200160405280600081525061050d565b509050806103915747600380549050600560149054906101000a900460ff166001811115610353576103526115e8565b5b6040517f6e195f2500000000000000000000000000000000000000000000000000000000815260040161038893929190611617565b60405180910390fd5b6001600560146101000a81548160ff021916908360018111156103b7576103b66115e8565b5b02179055506000600260009054906101000a900473ffffffffffffffffffffffffffffffffffffffff1673ffffffffffffffffffffffffffffffffffffffff16639b1c385e6040518060c001604052807f000000000000000000000000000000000000000000000000000000000000000081526020017f00000000000000000000000000000000000000000000000000000000000000008152602001600361ffff168152602001600260149054906101000a900463ffffffff1663ffffffff168152602001600163ffffffff1681526020016104a3604051806020016040528060001515815250610d65565b8152506040518263ffffffff1660e01b81526004016104c29190611785565b6020604051808303816000875af11580156104e1573d6000803e3d6000fd5b505050506040513d601f19601f8201168201806040525081019061050591906117bc565b905050505050565b6000606060007f0000000000000000000000000000000000000000000000000000000000000000600454426105429190611818565b10159050600080600181111561055b5761055a6115e8565b5b600560149054906101000a900460ff16600181111561057d5761057c6115e8565b5b1490506000804711905060008060038054905011905083801561059d5750825b80156105a65750815b80156105af5750805b955085604051806020016040528060008152509550955050505050915091565b600160009054906101000a900473ffffffffffffffffffffffffffffffffffffffff1673ffffffffffffffffffffffffffffffffffffffff163373ffffffffffffffffffffffffffffffffffffffff161461065f576040517f08c379a0000000000000000000000000000000000000000000000000000000008152600401610656906118a9565b60405180910390fd5b60008060009054906101000a900473ffffffffffffffffffffffffffffffffffffffff169050336000806101000a81548173ffffffffffffffffffffffffffffffffffffffff021916908373ffffffffffffffffffffffffffffffffffffffff1602179055506000600160006101000a81548173ffffffffffffffffffffffffffffffffffffffff021916908373ffffffffffffffffffffffffffffffffffffffff1602179055503373ffffffffffffffffffffffffffffffffffffffff168173ffffffffffffffffffffffffffffffffffffffff167f8be0079c531659141344cd1fd0a4f28419497f9722a3daafe3b4186f6b6457e060405160405180910390a350565b60008060009054906101000a900473ffffffffffffffffffffffffffffffffffffffff16905090565b610795610764565b73ffffffffffffffffffffffffffffffffffffffff163373ffffffffffffffffffffffffffffffffffffffff161415801561081e5750600260009054906101000a900473ffffffffffffffffffffffffffffffffffffffff1673ffffffffffffffffffffffffffffffffffffffff163373ffffffffffffffffffffffffffffffffffffffff1614155b1561088d573361082c610764565b600260009054906101000a900473ffffffffffffffffffffffffffffffffffffffff166040517f061db9c1000000000000000000000000000000000000000000000000000000008152600401610884939291906118c9565b60405180910390fd5b600073ffffffffffffffffffffffffffffffffffffffff168173ffffffffffffffffffffffffffffffffffffffff16036108f3576040517fd92e233d00000000000000000000000000000000000000000000000000000000815260040160405180910390fd5b80600260006101000a81548173ffffffffffffffffffffffffffffffffffffffff021916908373ffffffffffffffffffffffffffffffffffffffff1602179055507fd1a6a14209a385a964d036e404cb5cfb71f4000cdb03c9366292430787261be68160405161096391906114d1565b60405180910390a150565b600260009054906101000a900473ffffffffffffffffffffffffffffffffffffffff1681565b7f00000000000000000000000000000000000000000000000000000000000000003410156109ee576040517f8dee033a00000000000000000000000000000000000000000000000000000000815260040160405180910390fd5b6003339080600181540180825580915050600190039060005260206000200160009091909190916101000a81548173ffffffffffffffffffffffffffffffffffffffff021916908373ffffffffffffffffffffffffffffffffffffffff1602179055503373ffffffffffffffffffffffffffffffffffffffff167f4d999952f9aa655a216ee2df5968ca0e670e9582ddc96cfe7d8168114b8ca37f60405160405180910390a260006001811115610aa857610aa76115e8565b5b600560149054906101000a900460ff166001811115610aca57610ac96115e8565b5b14610b01576040517fb4fba98600000000000000000000000000000000000000000000000000000000815260040160405180910390fd5b565b610b0b610dfd565b610b1481610e8d565b50565b600060038054905083836000818110610b3357610b32611900565b5b90506020020135610b44919061195e565b9050600060038281548110610b5c57610b5b611900565b5b9060005260206000200160009054906101000a900473ffffffffffffffffffffffffffffffffffffffff16905080600560006101000a81548173ffffffffffffffffffffffffffffffffffffffff021916908373ffffffffffffffffffffffffffffffffffffffff1602179055506000600560146101000a81548160ff02191690836001811115610bf057610bef6115e8565b5b0217905550600067ffffffffffffffff811115610c1057610c0f611252565b5b604051908082528060200260200182016040528015610c3e5781602001602082028036833780820191505090505b5060039080519060200190610c54929190610fb9565b5060008173ffffffffffffffffffffffffffffffffffffffff1647604051610c7b906119c0565b60006040518083038185875af1925050503d8060008114610cb8576040519150601f19603f3d011682016040523d82523d6000602084013e610cbd565b606091505b5050905080610cf8576040517ff0629e1700000000000000000000000000000000000000000000000000000000815260040160405180910390fd5b600560009054906101000a900473ffffffffffffffffffffffffffffffffffffffff1673ffffffffffffffffffffffffffffffffffffffff167f5b690ec4a06fe979403046eaeea5b3ce38524683c3001f662c8b5a829632f7df60405160405180910390a2505050505050565b60607f92fd13387c7fe7befbc38d303d6468778fb9731bc4583f17d92989c6fcfdeaaa82604051602401610d999190611a00565b604051602081830303815290604052907bffffffffffffffffffffffffffffffffffffffffffffffffffffffff19166020820180517bffffffffffffffffffffffffffffffffffffffffffffffffffffffff83818316178352505050509050919050565b60008054906101000a900473ffffffffffffffffffffffffffffffffffffffff1673ffffffffffffffffffffffffffffffffffffffff163373ffffffffffffffffffffffffffffffffffffffff1614610e8b576040517f08c379a0000000000000000000000000000000000000000000000000000000008152600401610e8290611a67565b60405180910390fd5b565b3373ffffffffffffffffffffffffffffffffffffffff168173ffffffffffffffffffffffffffffffffffffffff1603610efb576040517f08c379a0000000000000000000000000000000000000000000000000000000008152600401610ef290611ad3565b60405180910390fd5b80600160006101000a81548173ffffffffffffffffffffffffffffffffffffffff021916908373ffffffffffffffffffffffffffffffffffffffff1602179055508073ffffffffffffffffffffffffffffffffffffffff1660008054906101000a900473ffffffffffffffffffffffffffffffffffffffff1673ffffffffffffffffffffffffffffffffffffffff167fed8889f560326eb138920d842192f0eb3dd22b4f139c87a2c57538e05bae127860405160405180910390a350565b828054828255906000526020600020908101928215611032579160200282015b828111156110315782518260006101000a81548173ffffffffffffffffffffffffffffffffffffffff021916908373ffffffffffffffffffffffffffffffffffffffff16021790555091602001919060010190610fd9565b5b50905061103f9190611043565b5090565b5b8082111561105c576000816000905550600101611044565b5090565b6000819050919050565b61107381611060565b82525050565b600060208201905061108e600083018461106a565b92915050565b6000604051905090565b600080fd5b600080fd5b6110b181611060565b81146110bc57600080fd5b50565b6000813590506110ce816110a8565b92915050565b600080fd5b600080fd5b600080fd5b60008083601f8401126110f9576110f86110d4565b5b8235905067ffffffffffffffff811115611116576111156110d9565b5b602083019150836020820283011115611132576111316110de565b5b9250929050565b6000806000604084860312156111525761115161109e565b5b6000611160868287016110bf565b935050602084013567ffffffffffffffff811115611181576111806110a3565b5b61118d868287016110e3565b92509250509250925092565b60008083601f8401126111af576111ae6110d4565b5b8235905067ffffffffffffffff8111156111cc576111cb6110d9565b5b6020830191508360018202830111156111e8576111e76110de565b5b9250929050565b600080602083850312156112065761120561109e565b5b600083013567ffffffffffffffff811115611224576112236110a3565b5b61123085828601611199565b92509250509250929050565b600080fd5b6000601f19601f8301169050919050565b7f4e487b7100000000000000000000000000000000000000000000000000000000600052604160045260246000fd5b61128a82611241565b810181811067ffffffffffffffff821117156112a9576112a8611252565b5b80604052505050565b60006112bc611094565b90506112c88282611281565b919050565b600067ffffffffffffffff8211156112e8576112e7611252565b5b6112f182611241565b9050602081019050919050565b82818337600083830152505050565b600061132061131b846112cd565b6112b2565b90508281526020810184848401111561133c5761133b61123c565b5b6113478482856112fe565b509392505050565b600082601f830112611364576113636110d4565b5b813561137484826020860161130d565b91505092915050565b6000602082840312156113935761139261109e565b5b600082013567ffffffffffffffff8111156113b1576113b06110a3565b5b6113bd8482850161134f565b91505092915050565b60008115159050919050565b6113db816113c6565b82525050565b600081519050919050565b600082825260208201905092915050565b60005b8381101561141b578082015181840152602081019050611400565b60008484015250505050565b6000611432826113e1565b61143c81856113ec565b935061144c8185602086016113fd565b61145581611241565b840191505092915050565b600060408201905061147560008301856113d2565b81810360208301526114878184611427565b90509392505050565b600073ffffffffffffffffffffffffffffffffffffffff82169050919050565b60006114bb82611490565b9050919050565b6114cb816114b0565b82525050565b60006020820190506114e660008301846114c2565b92915050565b6114f5816114b0565b811461150057600080fd5b50565b600081359050611512816114ec565b92915050565b60006020828403121561152e5761152d61109e565b5b600061153c84828501611503565b91505092915050565b6000819050919050565b600061156a61156561156084611490565b611545565b611490565b9050919050565b600061157c8261154f565b9050919050565b600061158e82611571565b9050919050565b61159e81611583565b82525050565b60006020820190506115b96000830184611595565b92915050565b60006040820190506115d460008301856114c2565b6115e160208301846114c2565b9392505050565b7f4e487b7100000000000000000000000000000000000000000000000000000000600052602160045260246000fd5b600060608201905061162c600083018661106a565b611639602083018561106a565b611646604083018461106a565b949350505050565b6000819050919050565b6116618161164e565b82525050565b61167081611060565b82525050565b600061ffff82169050919050565b61168d81611676565b82525050565b600063ffffffff82169050919050565b6116ac81611693565b82525050565b600082825260208201905092915050565b60006116ce826113e1565b6116d881856116b2565b93506116e88185602086016113fd565b6116f181611241565b840191505092915050565b600060c0830160008301516117146000860182611658565b5060208301516117276020860182611667565b50604083015161173a6040860182611684565b50606083015161174d60608601826116a3565b50608083015161176060808601826116a3565b5060a083015184820360a086015261177882826116c3565b9150508091505092915050565b6000602082019050818103600083015261179f81846116fc565b905092915050565b6000815190506117b6816110a8565b92915050565b6000602082840312156117d2576117d161109e565b5b60006117e0848285016117a7565b91505092915050565b7f4e487b7100000000000000000000000000000000000000000000000000000000600052601160045260246000fd5b600061182382611060565b915061182e83611060565b9250828203905081811115611846576118456117e9565b5b92915050565b600082825260208201905092915050565b7f4d7573742062652070726f706f736564206f776e657200000000000000000000600082015250565b600061189360168361184c565b915061189e8261185d565b602082019050919050565b600060208201905081810360008301526118c281611886565b9050919050565b60006060820190506118de60008301866114c2565b6118eb60208301856114c2565b6118f860408301846114c2565b949350505050565b7f4e487b7100000000000000000000000000000000000000000000000000000000600052603260045260246000fd5b7f4e487b7100000000000000000000000000000000000000000000000000000000600052601260045260246000fd5b600061196982611060565b915061197483611060565b9250826119845761198361192f565b5b828206905092915050565b600081905092915050565b50565b60006119aa60008361198f565b91506119b58261199a565b600082019050919050565b60006119cb8261199d565b9150819050919050565b6119de816113c6565b82525050565b6020820160008201516119fa60008501826119d5565b50505050565b6000602082019050611a1560008301846119e4565b92915050565b7f4f6e6c792063616c6c61626c65206279206f776e657200000000000000000000600082015250565b6000611a5160168361184c565b9150611a5c82611a1b565b602082019050919050565b60006020820190508181036000830152611a8081611a44565b9050919050565b7f43616e6e6f74207472616e7366657220746f2073656c66000000000000000000600082015250565b6000611abd60178361184c565b9150611ac882611a87565b602082019050919050565b60006020820190508181036000830152611aec81611ab0565b905091905056fea2646970667358221220232262f3fb00311e1b08c44f54bce314e5b9c70c8caab2c65ccaa18d67e183ed64736f6c63430008130033","linkReferences":{}},"methodIdentifiers":{"acceptOwnership()":"79ba5097","checkUpkeep(bytes)":"6e04ff0d","enterLottery()":"c1af5785","getEntranceFee()":"09bc33a7","owner()":"8da5cb5b","performUpKeep(bytes)":"6c7c8f17","rawFulfillRandomWords(uint256,uint256[])":"1fe543e3","s_vrfCoordinator()":"9eccacf6","setCoordinator(address)":"8ea98117","transferOwnership(address)":"f2fde38b"},"id":8}