{"abi":[{"type":"constructor","inputs":[{"name":"entranceFee","type":"uint256","internalType":"uint256"},{"name":"interval","type":"uint256","internalType":"uint256"},{"name":"vrfCoordinator","type":"address","internalType":"address"},{"name":"gasLane","type":"bytes32","internalType":"bytes32"},{"name":"subscriptionId","type":"uint256","internalType":"uint256"},{"name":"callbackGasLimit","type":"uint32","internalType":"uint32"}],"stateMutability":"nonpayable"},{"type":"function","name":"acceptOwnership","inputs":[],"outputs":[],"stateMutability":"nonpayable"},{"type":"function","name":"checkUpkeep","inputs":[{"name":"","type":"bytes","internalType":"bytes"}],"outputs":[{"name":"upkeepNeeded","type":"bool","internalType":"bool"},{"name":"","type":"bytes","internalType":"bytes"}],"stateMutability":"view"},{"type":"function","name":"enterLottery","inputs":[],"outputs":[],"stateMutability":"payable"},{"type":"function","name":"getEntranceFee","inputs":[],"outputs":[{"name":"","type":"uint256","internalType":"uint256"}],"stateMutability":"view"},{"type":"function","name":"getLatestTimeStamp","inputs":[],"outputs":[{"name":"","type":"uint256","internalType":"uint256"}],"stateMutability":"view"},{"type":"function","name":"getLotteryState","inputs":[],"outputs":[{"name":"","type":"uint8","internalType":"enum Lottery.LotteryState"}],"stateMutability":"view"},{"type":"function","name":"getPlayer","inputs":[{"name":"indexOfPlayer","type":"uint256","internalType":"uint256"}],"outputs":[{"name":"","type":"address","internalType":"address"}],"stateMutability":"view"},{"type":"function","name":"getPlayerNumber","inputs":[],"outputs":[{"name":"","type":"uint256","internalType":"uint256"}],"stateMutability":"view"},{"type":"function","name":"getRecentWinner","inputs":[],"outputs":[{"name":"","type":"address","internalType":"address"}],"stateMutability":"view"},{"type":"function","name":"owner","inputs":[],"outputs":[{"name":"","type":"address","internalType":"address"}],"stateMutability":"view"},{"type":"function","name":"performUpKeep","inputs":[{"name":"","type":"bytes","internalType":"bytes"}],"outputs":[],"stateMutability":"nonpayable"},{"type":"function","name":"rawFulfillRandomWords","inputs":[{"name":"requestId","type":"uint256","internalType":"uint256"},{"name":"randomWords","type":"uint256[]","internalType":"uint256[]"}],"outputs":[],"stateMutability":"nonpayable"},{"type":"function","name":"s_vrfCoordinator","inputs":[],"outputs":[{"name":"","type":"address","internalType":"contract IVRFCoordinatorV2Plus"}],"stateMutability":"view"},{"type":"function","name":"setCoordinator","inputs":[{"name":"_vrfCoordinator","type":"address","internalType":"address"}],"outputs":[],"stateMutability":"nonpayable"},{"type":"function","name":"transferOwnership","inputs":[{"name":"to","type":"address","internalType":"address"}],"outputs":[],"stateMutability":"nonpayable"},{"type":"event","name":"CoordinatorSet","inputs":[{"name":"vrfCoordinator","type":"address","indexed":false,"internalType":"address"}],"anonymous":false},{"type":"event","name":"OwnershipTransferRequested","inputs":[{"name":"from","type":"address","indexed":true,"internalType":"address"},{"name":"to","type":"address","indexed":true,"internalType":"address"}],"anonymous":false},{"type":"event","name":"OwnershipTransferred","inputs":[{"name":"from","type":"address","indexed":true,"internalType":"address"},{"name":"to","type":"address","indexed":true,"internalType":"address"}],"anonymous":false},{"type":"event","name":"PlayerEntered","inputs":[{"name":"player","type":"address","indexed":true,"internalType":"address"}],"anonymous":false},{"type":"event","name":"RequestLotteryWinner","inputs":[{"name":"requestId","type":"uint256","indexed":true,"internalType":"uint256"}],"anonymous":false},{"type":"event","name":"WinnerPicked","inputs":[{"name":"player","type":"address","indexed":true,"internalType":"address"}],"anonymous":false},{"type":"error","name":"Lottery__LotteryNotOpened","inputs":[]},{"type":"error","name":"Lottery__SendMoreEthToParticipate","inputs":[]},{"type":"error","name":"Lottery__TransferFailed","inputs":[]},{"type":"error","name":"Lottery__UpkeepNotNeeded","inputs":[{"name":"balance","type":"uint256","internalType":"uint256"},{"name":"playersLength","type":"uint256","internalType":"uint256"},{"name":"raffleState","type":"uint256","internalType":"uint256"}]},{"type":"error","name":"OnlyCoordinatorCanFulfill","inputs":[{"name":"have","type":"address","internalType":"address"},{"name":"want","type":"address","internalType":"address"}]},{"type":"error","name":"OnlyOwnerOrCoordinator","inputs":[{"name":"have","type":"address","internalType":"address"},{"name":"owner","type":"address","internalType":"address"},{"name":"coordinator","type":"address","internalType":"address"}]},{"type":"error","name":"ZeroAddress","inputs":[]}],"bytecode":{"object":"0x6101006040523480156200001257600080fd5b5060405162002481380380620024818339818101604052810190620000389190620004b3565b83338060008073ffffffffffffffffffffffffffffffffffffffff168273ffffffffffffffffffffffffffffffffffffffff1603620000ae576040517f08c379a0000000000000000000000000000000000000000000000000000000008152600401620000a590620005b0565b60405180910390fd5b816000806101000a81548173ffffffffffffffffffffffffffffffffffffffff021916908373ffffffffffffffffffffffffffffffffffffffff160217905550600073ffffffffffffffffffffffffffffffffffffffff168173ffffffffffffffffffffffffffffffffffffffff1614620001355762000134816200026360201b60201c565b5b505050600073ffffffffffffffffffffffffffffffffffffffff168173ffffffffffffffffffffffffffffffffffffffff16036200019f576040517fd92e233d00000000000000000000000000000000000000000000000000000000815260040160405180910390fd5b80600260006101000a81548173ffffffffffffffffffffffffffffffffffffffff021916908373ffffffffffffffffffffffffffffffffffffffff1602179055505085608081815250508460a081815250508260c081815250508160e0818152505080600260146101000a81548163ffffffff021916908363ffffffff160217905550426004819055506000600560146101000a81548160ff02191690836001811115620002525762000251620005d2565b5b021790555050505050505062000673565b3373ffffffffffffffffffffffffffffffffffffffff168173ffffffffffffffffffffffffffffffffffffffff1603620002d4576040517f08c379a0000000000000000000000000000000000000000000000000000000008152600401620002cb9062000651565b60405180910390fd5b80600160006101000a81548173ffffffffffffffffffffffffffffffffffffffff021916908373ffffffffffffffffffffffffffffffffffffffff1602179055508073ffffffffffffffffffffffffffffffffffffffff1660008054906101000a900473ffffffffffffffffffffffffffffffffffffffff1673ffffffffffffffffffffffffffffffffffffffff167fed8889f560326eb138920d842192f0eb3dd22b4f139c87a2c57538e05bae127860405160405180910390a350565b600080fd5b6000819050919050565b620003ac8162000397565b8114620003b857600080fd5b50565b600081519050620003cc81620003a1565b92915050565b600073ffffffffffffffffffffffffffffffffffffffff82169050919050565b6000620003ff82620003d2565b9050919050565b6200041181620003f2565b81146200041d57600080fd5b50565b600081519050620004318162000406565b92915050565b6000819050919050565b6200044c8162000437565b81146200045857600080fd5b50565b6000815190506200046c8162000441565b92915050565b600063ffffffff82169050919050565b6200048d8162000472565b81146200049957600080fd5b50565b600081519050620004ad8162000482565b92915050565b60008060008060008060c08789031215620004d357620004d262000392565b5b6000620004e389828a01620003bb565b9650506020620004f689828a01620003bb565b95505060406200050989828a0162000420565b94505060606200051c89828a016200045b565b93505060806200052f89828a01620003bb565b92505060a06200054289828a016200049c565b9150509295509295509295565b600082825260208201905092915050565b7f43616e6e6f7420736574206f776e657220746f207a65726f0000000000000000600082015250565b6000620005986018836200054f565b9150620005a58262000560565b602082019050919050565b60006020820190508181036000830152620005cb8162000589565b9050919050565b7f4e487b7100000000000000000000000000000000000000000000000000000000600052602160045260246000fd5b7f43616e6e6f74207472616e7366657220746f2073656c66000000000000000000600082015250565b6000620006396017836200054f565b9150620006468262000601565b602082019050919050565b600060208201905081810360008301526200066c816200062a565b9050919050565b60805160a05160c05160e051611dcd620006b460003960006105c7015260006105a1015260006106da01526000818161035e0152610b5b0152611dcd6000f3fe6080604052600436106100e85760003560e01c80636e04ff0d1161008a5780639eccacf6116100595780639eccacf6146102bf578063c1af5785146102ea578063e55ae4e8146102f4578063f2fde38b14610331576100e8565b80636e04ff0d1461021657806379ba5097146102545780638da5cb5b1461026b5780638ea9811714610296576100e8565b8063320229eb116100c6578063320229eb1461016c578063473f1ddc146101975780636b68c03c146101c25780636c7c8f17146101ed576100e8565b806309bc33a7146100ed57806313eaac6c146101185780631fe543e314610143575b600080fd5b3480156100f957600080fd5b5061010261035a565b60405161010f919061128d565b60405180910390f35b34801561012457600080fd5b5061012d610382565b60405161013a919061128d565b60405180910390f35b34801561014f57600080fd5b5061016a6004803603810190610165919061134d565b61038f565b005b34801561017857600080fd5b50610181610455565b60405161018e919061128d565b60405180910390f35b3480156101a357600080fd5b506101ac61045f565b6040516101b991906113ee565b60405180910390f35b3480156101ce57600080fd5b506101d7610489565b6040516101e49190611480565b60405180910390f35b3480156101f957600080fd5b50610214600480360381019061020f91906114f1565b6104a0565b005b34801561022257600080fd5b5061023d6004803603810190610238919061167f565b6106d2565b60405161024b929190611762565b60405180910390f35b34801561026057600080fd5b50610269610794565b005b34801561027757600080fd5b50610280610929565b60405161028d91906113ee565b60405180910390f35b3480156102a257600080fd5b506102bd60048036038101906102b891906117be565b610952565b005b3480156102cb57600080fd5b506102d4610b33565b6040516102e1919061184a565b60405180910390f35b6102f2610b59565b005b34801561030057600080fd5b5061031b60048036038101906103169190611865565b610cc8565b60405161032891906113ee565b60405180910390f35b34801561033d57600080fd5b50610358600480360381019061035391906117be565b610d10565b005b60007f0000000000000000000000000000000000000000000000000000000000000000905090565b6000600380549050905090565b600260009054906101000a900473ffffffffffffffffffffffffffffffffffffffff1673ffffffffffffffffffffffffffffffffffffffff163373ffffffffffffffffffffffffffffffffffffffff16146104455733600260009054906101000a900473ffffffffffffffffffffffffffffffffffffffff166040517f1cf993f400000000000000000000000000000000000000000000000000000000815260040161043c929190611892565b60405180910390fd5b610450838383610d24565b505050565b6000600454905090565b6000600560009054906101000a900473ffffffffffffffffffffffffffffffffffffffff16905090565b6000600560149054906101000a900460ff16905090565b60006104ba604051806020016040528060008152506106d2565b509050806105295747600380549050600560149054906101000a900460ff1660018111156104eb576104ea611409565b5b6040517f6e195f25000000000000000000000000000000000000000000000000000000008152600401610520939291906118bb565b60405180910390fd5b6001600560146101000a81548160ff0219169083600181111561054f5761054e611409565b5b02179055506000600260009054906101000a900473ffffffffffffffffffffffffffffffffffffffff1673ffffffffffffffffffffffffffffffffffffffff16639b1c385e6040518060c001604052807f000000000000000000000000000000000000000000000000000000000000000081526020017f00000000000000000000000000000000000000000000000000000000000000008152602001600361ffff168152602001600260149054906101000a900463ffffffff1663ffffffff168152602001600163ffffffff16815260200161063b604051806020016040528060001515815250610f79565b8152506040518263ffffffff1660e01b815260040161065a9190611a29565b6020604051808303816000875af1158015610679573d6000803e3d6000fd5b505050506040513d601f19601f8201168201806040525081019061069d9190611a60565b9050807feddaba8a57dcfd3a637ac76edea7af81443028e0bd6e6cb23bd210a4a85ba85660405160405180910390a250505050565b6000606060007f0000000000000000000000000000000000000000000000000000000000000000600454426107079190611abc565b1015905060008060018111156107205761071f611409565b5b600560149054906101000a900460ff16600181111561074257610741611409565b5b149050600080471190506000806003805490501190508380156107625750825b801561076b5750815b80156107745750805b955085604051806020016040528060008152509550955050505050915091565b600160009054906101000a900473ffffffffffffffffffffffffffffffffffffffff1673ffffffffffffffffffffffffffffffffffffffff163373ffffffffffffffffffffffffffffffffffffffff1614610824576040517f08c379a000000000000000000000000000000000000000000000000000000000815260040161081b90611b4d565b60405180910390fd5b60008060009054906101000a900473ffffffffffffffffffffffffffffffffffffffff169050336000806101000a81548173ffffffffffffffffffffffffffffffffffffffff021916908373ffffffffffffffffffffffffffffffffffffffff1602179055506000600160006101000a81548173ffffffffffffffffffffffffffffffffffffffff021916908373ffffffffffffffffffffffffffffffffffffffff1602179055503373ffffffffffffffffffffffffffffffffffffffff168173ffffffffffffffffffffffffffffffffffffffff167f8be0079c531659141344cd1fd0a4f28419497f9722a3daafe3b4186f6b6457e060405160405180910390a350565b60008060009054906101000a900473ffffffffffffffffffffffffffffffffffffffff16905090565b61095a610929565b73ffffffffffffffffffffffffffffffffffffffff163373ffffffffffffffffffffffffffffffffffffffff16141580156109e35750600260009054906101000a900473ffffffffffffffffffffffffffffffffffffffff1673ffffffffffffffffffffffffffffffffffffffff163373ffffffffffffffffffffffffffffffffffffffff1614155b15610a5257336109f1610929565b600260009054906101000a900473ffffffffffffffffffffffffffffffffffffffff166040517f061db9c1000000000000000000000000000000000000000000000000000000008152600401610a4993929190611b6d565b60405180910390fd5b600073ffffffffffffffffffffffffffffffffffffffff168173ffffffffffffffffffffffffffffffffffffffff1603610ab8576040517fd92e233d00000000000000000000000000000000000000000000000000000000815260040160405180910390fd5b80600260006101000a81548173ffffffffffffffffffffffffffffffffffffffff021916908373ffffffffffffffffffffffffffffffffffffffff1602179055507fd1a6a14209a385a964d036e404cb5cfb71f4000cdb03c9366292430787261be681604051610b2891906113ee565b60405180910390a150565b600260009054906101000a900473ffffffffffffffffffffffffffffffffffffffff1681565b7f0000000000000000000000000000000000000000000000000000000000000000341015610bb3576040517f8dee033a00000000000000000000000000000000000000000000000000000000815260040160405180910390fd5b6003339080600181540180825580915050600190039060005260206000200160009091909190916101000a81548173ffffffffffffffffffffffffffffffffffffffff021916908373ffffffffffffffffffffffffffffffffffffffff1602179055503373ffffffffffffffffffffffffffffffffffffffff167f4d999952f9aa655a216ee2df5968ca0e670e9582ddc96cfe7d8168114b8ca37f60405160405180910390a260006001811115610c6d57610c6c611409565b5b600560149054906101000a900460ff166001811115610c8f57610c8e611409565b5b14610cc6576040517fb4fba98600000000000000000000000000000000000000000000000000000000815260040160405180910390fd5b565b600060038281548110610cde57610cdd611ba4565b5b9060005260206000200160009054906101000a900473ffffffffffffffffffffffffffffffffffffffff169050919050565b610d18611011565b610d21816110a1565b50565b600060038054905083836000818110610d4057610d3f611ba4565b5b90506020020135610d519190611c02565b9050600060038281548110610d6957610d68611ba4565b5b9060005260206000200160009054906101000a900473ffffffffffffffffffffffffffffffffffffffff16905080600560006101000a81548173ffffffffffffffffffffffffffffffffffffffff021916908373ffffffffffffffffffffffffffffffffffffffff1602179055506000600560146101000a81548160ff02191690836001811115610dfd57610dfc611409565b5b0217905550600067ffffffffffffffff811115610e1d57610e1c611554565b5b604051908082528060200260200182016040528015610e4b5781602001602082028036833780820191505090505b5060039080519060200190610e619291906111cd565b504260048190555060008173ffffffffffffffffffffffffffffffffffffffff1647604051610e8f90611c64565b60006040518083038185875af1925050503d8060008114610ecc576040519150601f19603f3d011682016040523d82523d6000602084013e610ed1565b606091505b5050905080610f0c576040517f1c94012000000000000000000000000000000000000000000000000000000000815260040160405180910390fd5b600560009054906101000a900473ffffffffffffffffffffffffffffffffffffffff1673ffffffffffffffffffffffffffffffffffffffff167f5b690ec4a06fe979403046eaeea5b3ce38524683c3001f662c8b5a829632f7df60405160405180910390a2505050505050565b60607f92fd13387c7fe7befbc38d303d6468778fb9731bc4583f17d92989c6fcfdeaaa82604051602401610fad9190611ca4565b604051602081830303815290604052907bffffffffffffffffffffffffffffffffffffffffffffffffffffffff19166020820180517bffffffffffffffffffffffffffffffffffffffffffffffffffffffff83818316178352505050509050919050565b60008054906101000a900473ffffffffffffffffffffffffffffffffffffffff1673ffffffffffffffffffffffffffffffffffffffff163373ffffffffffffffffffffffffffffffffffffffff161461109f576040517f08c379a000000000000000000000000000000000000000000000000000000000815260040161109690611d0b565b60405180910390fd5b565b3373ffffffffffffffffffffffffffffffffffffffff168173ffffffffffffffffffffffffffffffffffffffff160361110f576040517f08c379a000000000000000000000000000000000000000000000000000000000815260040161110690611d77565b60405180910390fd5b80600160006101000a81548173ffffffffffffffffffffffffffffffffffffffff021916908373ffffffffffffffffffffffffffffffffffffffff1602179055508073ffffffffffffffffffffffffffffffffffffffff1660008054906101000a900473ffffffffffffffffffffffffffffffffffffffff1673ffffffffffffffffffffffffffffffffffffffff167fed8889f560326eb138920d842192f0eb3dd22b4f139c87a2c57538e05bae127860405160405180910390a350565b828054828255906000526020600020908101928215611246579160200282015b828111156112455782518260006101000a81548173ffffffffffffffffffffffffffffffffffffffff021916908373ffffffffffffffffffffffffffffffffffffffff160217905550916020019190600101906111ed565b5b5090506112539190611257565b5090565b5b80821115611270576000816000905550600101611258565b5090565b6000819050919050565b61128781611274565b82525050565b60006020820190506112a2600083018461127e565b92915050565b6000604051905090565b600080fd5b600080fd5b6112c581611274565b81146112d057600080fd5b50565b6000813590506112e2816112bc565b92915050565b600080fd5b600080fd5b600080fd5b60008083601f84011261130d5761130c6112e8565b5b8235905067ffffffffffffffff81111561132a576113296112ed565b5b602083019150836020820283011115611346576113456112f2565b5b9250929050565b600080600060408486031215611366576113656112b2565b5b6000611374868287016112d3565b935050602084013567ffffffffffffffff811115611395576113946112b7565b5b6113a1868287016112f7565b92509250509250925092565b600073ffffffffffffffffffffffffffffffffffffffff82169050919050565b60006113d8826113ad565b9050919050565b6113e8816113cd565b82525050565b600060208201905061140360008301846113df565b92915050565b7f4e487b7100000000000000000000000000000000000000000000000000000000600052602160045260246000fd5b6002811061144957611448611409565b5b50565b600081905061145a82611438565b919050565b600061146a8261144c565b9050919050565b61147a8161145f565b82525050565b60006020820190506114956000830184611471565b92915050565b60008083601f8401126114b1576114b06112e8565b5b8235905067ffffffffffffffff8111156114ce576114cd6112ed565b5b6020830191508360018202830111156114ea576114e96112f2565b5b9250929050565b60008060208385031215611508576115076112b2565b5b600083013567ffffffffffffffff811115611526576115256112b7565b5b6115328582860161149b565b92509250509250929050565b600080fd5b6000601f19601f8301169050919050565b7f4e487b7100000000000000000000000000000000000000000000000000000000600052604160045260246000fd5b61158c82611543565b810181811067ffffffffffffffff821117156115ab576115aa611554565b5b80604052505050565b60006115be6112a8565b90506115ca8282611583565b919050565b600067ffffffffffffffff8211156115ea576115e9611554565b5b6115f382611543565b9050602081019050919050565b82818337600083830152505050565b600061162261161d846115cf565b6115b4565b90508281526020810184848401111561163e5761163d61153e565b5b611649848285611600565b509392505050565b600082601f830112611666576116656112e8565b5b813561167684826020860161160f565b91505092915050565b600060208284031215611695576116946112b2565b5b600082013567ffffffffffffffff8111156116b3576116b26112b7565b5b6116bf84828501611651565b91505092915050565b60008115159050919050565b6116dd816116c8565b82525050565b600081519050919050565b600082825260208201905092915050565b60005b8381101561171d578082015181840152602081019050611702565b60008484015250505050565b6000611734826116e3565b61173e81856116ee565b935061174e8185602086016116ff565b61175781611543565b840191505092915050565b600060408201905061177760008301856116d4565b81810360208301526117898184611729565b90509392505050565b61179b816113cd565b81146117a657600080fd5b50565b6000813590506117b881611792565b92915050565b6000602082840312156117d4576117d36112b2565b5b60006117e2848285016117a9565b91505092915050565b6000819050919050565b600061181061180b611806846113ad565b6117eb565b6113ad565b9050919050565b6000611822826117f5565b9050919050565b600061183482611817565b9050919050565b61184481611829565b82525050565b600060208201905061185f600083018461183b565b92915050565b60006020828403121561187b5761187a6112b2565b5b6000611889848285016112d3565b91505092915050565b60006040820190506118a760008301856113df565b6118b460208301846113df565b9392505050565b60006060820190506118d0600083018661127e565b6118dd602083018561127e565b6118ea604083018461127e565b949350505050565b6000819050919050565b611905816118f2565b82525050565b61191481611274565b82525050565b600061ffff82169050919050565b6119318161191a565b82525050565b600063ffffffff82169050919050565b61195081611937565b82525050565b600082825260208201905092915050565b6000611972826116e3565b61197c8185611956565b935061198c8185602086016116ff565b61199581611543565b840191505092915050565b600060c0830160008301516119b860008601826118fc565b5060208301516119cb602086018261190b565b5060408301516119de6040860182611928565b5060608301516119f16060860182611947565b506080830151611a046080860182611947565b5060a083015184820360a0860152611a1c8282611967565b9150508091505092915050565b60006020820190508181036000830152611a4381846119a0565b905092915050565b600081519050611a5a816112bc565b92915050565b600060208284031215611a7657611a756112b2565b5b6000611a8484828501611a4b565b91505092915050565b7f4e487b7100000000000000000000000000000000000000000000000000000000600052601160045260246000fd5b6000611ac782611274565b9150611ad283611274565b9250828203905081811115611aea57611ae9611a8d565b5b92915050565b600082825260208201905092915050565b7f4d7573742062652070726f706f736564206f776e657200000000000000000000600082015250565b6000611b37601683611af0565b9150611b4282611b01565b602082019050919050565b60006020820190508181036000830152611b6681611b2a565b9050919050565b6000606082019050611b8260008301866113df565b611b8f60208301856113df565b611b9c60408301846113df565b949350505050565b7f4e487b7100000000000000000000000000000000000000000000000000000000600052603260045260246000fd5b7f4e487b7100000000000000000000000000000000000000000000000000000000600052601260045260246000fd5b6000611c0d82611274565b9150611c1883611274565b925082611c2857611c27611bd3565b5b828206905092915050565b600081905092915050565b50565b6000611c4e600083611c33565b9150611c5982611c3e565b600082019050919050565b6000611c6f82611c41565b9150819050919050565b611c82816116c8565b82525050565b602082016000820151611c9e6000850182611c79565b50505050565b6000602082019050611cb96000830184611c88565b92915050565b7f4f6e6c792063616c6c61626c65206279206f776e657200000000000000000000600082015250565b6000611cf5601683611af0565b9150611d0082611cbf565b602082019050919050565b60006020820190508181036000830152611d2481611ce8565b9050919050565b7f43616e6e6f74207472616e7366657220746f2073656c66000000000000000000600082015250565b6000611d61601783611af0565b9150611d6c82611d2b565b602082019050919050565b60006020820190508181036000830152611d9081611d54565b905091905056fea2646970667358221220f51ab748de07aacbdeb68cf094715209adb181f3613e19a271d9829996a1460664736f6c63430008130033","linkReferences":{}},"methodIdentifiers":{"acceptOwnership()":"79ba5097","checkUpkeep(bytes)":"6e04ff0d","enterLottery()":"c1af5785","getEntranceFee()":"09bc33a7","getLatestTimeStamp()":"320229eb","getLotteryState()":"6b68c03c","getPlayer(uint256)":"e55ae4e8","getPlayerNumber()":"13eaac6c","getRecentWinner()":"473f1ddc","owner()":"8da5cb5b","performUpKeep(bytes)":"6c7c8f17","rawFulfillRandomWords(uint256,uint256[])":"1fe543e3","s_vrfCoordinator()":"9eccacf6","setCoordinator(address)":"8ea98117","transferOwnership(address)":"f2fde38b"},"id":40}